{
  "_format": "hh-sol-artifact-1",
  "contractName": "polyDomain",
  "sourceName": "contracts/polyDomain.sol",
  "abi": [
    {
      "inputs": [
        {
          "internalType": "string",
          "name": "tld",
          "type": "string"
        }
      ],
      "stateMutability": "payable",
      "type": "constructor"
    },
    {
      "inputs": [],
      "name": "AlreadyRegistered",
      "type": "error"
    },
    {
      "inputs": [
        {
          "internalType": "string",
          "name": "name",
          "type": "string"
        }
      ],
      "name": "InvalidName",
      "type": "error"
    },
    {
      "inputs": [],
      "name": "Unauthorized",
      "type": "error"
    },
    {
      "anonymous": false,
      "inputs": [
        {
          "indexed": true,
          "internalType": "address",
          "name": "owner",
          "type": "address"
        },
        {
          "indexed": true,
          "internalType": "address",
          "name": "approved",
          "type": "address"
        },
        {
          "indexed": true,
          "internalType": "uint256",
          "name": "tokenId",
          "type": "uint256"
        }
      ],
      "name": "Approval",
      "type": "event"
    },
    {
      "anonymous": false,
      "inputs": [
        {
          "indexed": true,
          "internalType": "address",
          "name": "owner",
          "type": "address"
        },
        {
          "indexed": true,
          "internalType": "address",
          "name": "operator",
          "type": "address"
        },
        {
          "indexed": false,
          "internalType": "bool",
          "name": "approved",
          "type": "bool"
        }
      ],
      "name": "ApprovalForAll",
      "type": "event"
    },
    {
      "anonymous": false,
      "inputs": [
        {
          "indexed": true,
          "internalType": "address",
          "name": "from",
          "type": "address"
        },
        {
          "indexed": true,
          "internalType": "address",
          "name": "to",
          "type": "address"
        },
        {
          "indexed": true,
          "internalType": "uint256",
          "name": "tokenId",
          "type": "uint256"
        }
      ],
      "name": "Transfer",
      "type": "event"
    },
    {
      "inputs": [
        {
          "internalType": "string",
          "name": "name",
          "type": "string"
        }
      ],
      "name": "Register",
      "outputs": [],
      "stateMutability": "payable",
      "type": "function"
    },
    {
      "inputs": [
        {
          "internalType": "address",
          "name": "to",
          "type": "address"
        },
        {
          "internalType": "uint256",
          "name": "tokenId",
          "type": "uint256"
        }
      ],
      "name": "approve",
      "outputs": [],
      "stateMutability": "nonpayable",
      "type": "function"
    },
    {
      "inputs": [
        {
          "internalType": "address",
          "name": "owner",
          "type": "address"
        }
      ],
      "name": "balanceOf",
      "outputs": [
        {
          "internalType": "uint256",
          "name": "",
          "type": "uint256"
        }
      ],
      "stateMutability": "view",
      "type": "function"
    },
    {
      "inputs": [
        {
          "internalType": "string",
          "name": "name",
          "type": "string"
        }
      ],
      "name": "getAddress",
      "outputs": [
        {
          "internalType": "address",
          "name": "",
          "type": "address"
        }
      ],
      "stateMutability": "view",
      "type": "function"
    },
    {
      "inputs": [],
      "name": "getAllNames",
      "outputs": [
        {
          "internalType": "string[]",
          "name": "",
          "type": "string[]"
        }
      ],
      "stateMutability": "view",
      "type": "function"
    },
    {
      "inputs": [
        {
          "internalType": "uint256",
          "name": "tokenId",
          "type": "uint256"
        }
      ],
      "name": "getApproved",
      "outputs": [
        {
          "internalType": "address",
          "name": "",
          "type": "address"
        }
      ],
      "stateMutability": "view",
      "type": "function"
    },
    {
      "inputs": [
        {
          "internalType": "address",
          "name": "owner",
          "type": "address"
        },
        {
          "internalType": "address",
          "name": "operator",
          "type": "address"
        }
      ],
      "name": "isApprovedForAll",
      "outputs": [
        {
          "internalType": "bool",
          "name": "",
          "type": "bool"
        }
      ],
      "stateMutability": "view",
      "type": "function"
    },
    {
      "inputs": [],
      "name": "isOwner",
      "outputs": [
        {
          "internalType": "bool",
          "name": "",
          "type": "bool"
        }
      ],
      "stateMutability": "view",
      "type": "function"
    },
    {
      "inputs": [],
      "name": "name",
      "outputs": [
        {
          "internalType": "string",
          "name": "",
          "type": "string"
        }
      ],
      "stateMutability": "view",
      "type": "function"
    },
    {
      "inputs": [
        {
          "internalType": "uint256",
          "name": "",
          "type": "uint256"
        }
      ],
      "name": "names",
      "outputs": [
        {
          "internalType": "string",
          "name": "",
          "type": "string"
        }
      ],
      "stateMutability": "view",
      "type": "function"
    },
    {
      "inputs": [],
      "name": "owner",
      "outputs": [
        {
          "internalType": "address payable",
          "name": "",
          "type": "address"
        }
      ],
      "stateMutability": "view",
      "type": "function"
    },
    {
      "inputs": [
        {
          "internalType": "uint256",
          "name": "tokenId",
          "type": "uint256"
        }
      ],
      "name": "ownerOf",
      "outputs": [
        {
          "internalType": "address",
          "name": "",
          "type": "address"
        }
      ],
      "stateMutability": "view",
      "type": "function"
    },
    {
      "inputs": [
        {
          "internalType": "string",
          "name": "name",
          "type": "string"
        }
      ],
      "name": "priceofDomain",
      "outputs": [
        {
          "internalType": "uint256",
          "name": "",
          "type": "uint256"
        }
      ],
      "stateMutability": "pure",
      "type": "function"
    },
    {
      "inputs": [
        {
          "internalType": "address",
          "name": "from",
          "type": "address"
        },
        {
          "internalType": "address",
          "name": "to",
          "type": "address"
        },
        {
          "internalType": "uint256",
          "name": "tokenId",
          "type": "uint256"
        }
      ],
      "name": "safeTransferFrom",
      "outputs": [],
      "stateMutability": "nonpayable",
      "type": "function"
    },
    {
      "inputs": [
        {
          "internalType": "address",
          "name": "from",
          "type": "address"
        },
        {
          "internalType": "address",
          "name": "to",
          "type": "address"
        },
        {
          "internalType": "uint256",
          "name": "tokenId",
          "type": "uint256"
        },
        {
          "internalType": "bytes",
          "name": "data",
          "type": "bytes"
        }
      ],
      "name": "safeTransferFrom",
      "outputs": [],
      "stateMutability": "nonpayable",
      "type": "function"
    },
    {
      "inputs": [
        {
          "internalType": "address",
          "name": "operator",
          "type": "address"
        },
        {
          "internalType": "bool",
          "name": "approved",
          "type": "bool"
        }
      ],
      "name": "setApprovalForAll",
      "outputs": [],
      "stateMutability": "nonpayable",
      "type": "function"
    },
    {
      "inputs": [
        {
          "internalType": "string",
          "name": "name",
          "type": "string"
        },
        {
          "internalType": "string",
          "name": "record",
          "type": "string"
        }
      ],
      "name": "setRecord",
      "outputs": [],
      "stateMutability": "nonpayable",
      "type": "function"
    },
    {
      "inputs": [
        {
          "internalType": "bytes4",
          "name": "interfaceId",
          "type": "bytes4"
        }
      ],
      "name": "supportsInterface",
      "outputs": [
        {
          "internalType": "bool",
          "name": "",
          "type": "bool"
        }
      ],
      "stateMutability": "view",
      "type": "function"
    },
    {
      "inputs": [],
      "name": "symbol",
      "outputs": [
        {
          "internalType": "string",
          "name": "",
          "type": "string"
        }
      ],
      "stateMutability": "view",
      "type": "function"
    },
    {
      "inputs": [
        {
          "internalType": "uint256",
          "name": "tokenId",
          "type": "uint256"
        }
      ],
      "name": "tokenURI",
      "outputs": [
        {
          "internalType": "string",
          "name": "",
          "type": "string"
        }
      ],
      "stateMutability": "view",
      "type": "function"
    },
    {
      "inputs": [],
      "name": "topld",
      "outputs": [
        {
          "internalType": "string",
          "name": "",
          "type": "string"
        }
      ],
      "stateMutability": "view",
      "type": "function"
    },
    {
      "inputs": [
        {
          "internalType": "address",
          "name": "from",
          "type": "address"
        },
        {
          "internalType": "address",
          "name": "to",
          "type": "address"
        },
        {
          "internalType": "uint256",
          "name": "tokenId",
          "type": "uint256"
        }
      ],
      "name": "transferFrom",
      "outputs": [],
      "stateMutability": "nonpayable",
      "type": "function"
    },
    {
      "inputs": [
        {
          "internalType": "string",
          "name": "name",
          "type": "string"
        }
      ],
      "name": "valid",
      "outputs": [
        {
          "internalType": "bool",
          "name": "",
          "type": "bool"
        }
      ],
      "stateMutability": "pure",
      "type": "function"
    },
    {
      "inputs": [],
      "name": "withdraw",
      "outputs": [],
      "stateMutability": "nonpayable",
      "type": "function"
    }
  ],
  "bytecode": "0x6080604052604051806108a0016040528061086b8152602001620051fc61086b9139600b908162000031919062000503565b506040518060400160405280600d81526020017f3c2f746578743e3c2f7376673e00000000000000000000000000000000000000815250600c908162000078919062000503565b5060405162005a8f38038062005a8f83398181016040528101906200009e91906200074e565b6040518060400160405280601381526020017f517561736172204e616d652053657276696365000000000000000000000000008152506040518060400160405280600681526020017f517561736172000000000000000000000000000000000000000000000000000081525081600090816200011b919062000503565b5080600190816200012d919062000503565b505050806008908162000141919062000503565b50620001728160405180606001604052806028815260200162005a6760289139620001ba60201b620018e91760201c565b33600a60006101000a81548173ffffffffffffffffffffffffffffffffffffffff021916908373ffffffffffffffffffffffffffffffffffffffff160217905550506200082c565b6200025c8282604051602401620001d3929190620007f1565b6040516020818303038152906040527f4b5c4277000000000000000000000000000000000000000000000000000000007bffffffffffffffffffffffffffffffffffffffffffffffffffffffff19166020820180517bffffffffffffffffffffffffffffffffffffffffffffffffffffffff83818316178352505050506200026060201b60201c565b5050565b60008151905060006a636f6e736f6c652e6c6f679050602083016000808483855afa5050505050565b600081519050919050565b7f4e487b7100000000000000000000000000000000000000000000000000000000600052604160045260246000fd5b7f4e487b7100000000000000000000000000000000000000000000000000000000600052602260045260246000fd5b600060028204905060018216806200030b57607f821691505b602082108103620003215762000320620002c3565b5b50919050565b60008190508160005260206000209050919050565b60006020601f8301049050919050565b600082821b905092915050565b6000600883026200038b7fffffffffffffffffffffffffffffffffffffffffffffffffffffffffffffffff826200034c565b6200039786836200034c565b95508019841693508086168417925050509392505050565b6000819050919050565b6000819050919050565b6000620003e4620003de620003d884620003af565b620003b9565b620003af565b9050919050565b6000819050919050565b6200040083620003c3565b620004186200040f82620003eb565b84845462000359565b825550505050565b600090565b6200042f62000420565b6200043c818484620003f5565b505050565b5b8181101562000464576200045860008262000425565b60018101905062000442565b5050565b601f821115620004b3576200047d8162000327565b62000488846200033c565b8101602085101562000498578190505b620004b0620004a7856200033c565b83018262000441565b50505b505050565b600082821c905092915050565b6000620004d860001984600802620004b8565b1980831691505092915050565b6000620004f38383620004c5565b9150826002028217905092915050565b6200050e8262000289565b67ffffffffffffffff8111156200052a576200052962000294565b5b620005368254620002f2565b6200054382828562000468565b600060209050601f8311600181146200057b576000841562000566578287015190505b620005728582620004e5565b865550620005e2565b601f1984166200058b8662000327565b60005b82811015620005b5578489015182556001820191506020850194506020810190506200058e565b86831015620005d55784890151620005d1601f891682620004c5565b8355505b6001600288020188555050505b505050505050565b6000604051905090565b600080fd5b600080fd5b600080fd5b600080fd5b6000601f19601f8301169050919050565b620006248262000608565b810181811067ffffffffffffffff8211171562000646576200064562000294565b5b80604052505050565b60006200065b620005ea565b905062000669828262000619565b919050565b600067ffffffffffffffff8211156200068c576200068b62000294565b5b620006978262000608565b9050602081019050919050565b60005b83811015620006c4578082015181840152602081019050620006a7565b60008484015250505050565b6000620006e7620006e1846200066e565b6200064f565b90508281526020810184848401111562000706576200070562000603565b5b62000713848285620006a4565b509392505050565b600082601f830112620007335762000732620005fe565b5b815162000745848260208601620006d0565b91505092915050565b600060208284031215620007675762000766620005f4565b5b600082015167ffffffffffffffff811115620007885762000787620005f9565b5b62000796848285016200071b565b91505092915050565b600082825260208201905092915050565b6000620007bd8262000289565b620007c981856200079f565b9350620007db818560208601620006a4565b620007e68162000608565b840191505092915050565b600060408201905081810360008301526200080d8185620007b0565b90508181036020830152620008238184620007b0565b90509392505050565b6149c0806200083c6000396000f3fe60806040526004361061014b5760003560e01c80638da5cb5b116100b6578063bf40fac11161006f578063bf40fac114610495578063c1880a98146104d2578063c87b56dd146104fb578063e709c64f14610538578063e985e9c514610575578063fb825e5f146105b25761014b565b80638da5cb5b146103855780638f32d59b146103b057806395d89b41146103db5780639791c09714610406578063a22cb46514610443578063b88d4fde1461046c5761014b565b80633ccfd60b116101085780633ccfd60b1461027257806340b2d3af1461028957806342842e0e146102a55780634622ab03146102ce5780636352211e1461030b57806370a08231146103485761014b565b806301ffc9a7146101505780630558b70d1461018d57806306fdde03146101b8578063081812fc146101e3578063095ea7b31461022057806323b872dd14610249575b600080fd5b34801561015c57600080fd5b5061017760048036038101906101729190612c5b565b6105dd565b6040516101849190612ca3565b60405180910390f35b34801561019957600080fd5b506101a26106bf565b6040516101af9190612d4e565b60405180910390f35b3480156101c457600080fd5b506101cd61074d565b6040516101da9190612d4e565b60405180910390f35b3480156101ef57600080fd5b5061020a60048036038101906102059190612da6565b6107df565b6040516102179190612e14565b60405180910390f35b34801561022c57600080fd5b5061024760048036038101906102429190612e5b565b610825565b005b34801561025557600080fd5b50610270600480360381019061026b9190612e9b565b61093c565b005b34801561027e57600080fd5b5061028761099c565b005b6102a3600480360381019061029e9190612f53565b610a62565b005b3480156102b157600080fd5b506102cc60048036038101906102c79190612e9b565b610f9c565b005b3480156102da57600080fd5b506102f560048036038101906102f09190612da6565b610fbc565b6040516103029190612d4e565b60405180910390f35b34801561031757600080fd5b50610332600480360381019061032d9190612da6565b61105c565b60405161033f9190612e14565b60405180910390f35b34801561035457600080fd5b5061036f600480360381019061036a9190612fa0565b61110d565b60405161037c9190612fdc565b60405180910390f35b34801561039157600080fd5b5061039a6111c4565b6040516103a79190613018565b60405180910390f35b3480156103bc57600080fd5b506103c56111ea565b6040516103d29190612ca3565b60405180910390f35b3480156103e757600080fd5b506103f0611242565b6040516103fd9190612d4e565b60405180910390f35b34801561041257600080fd5b5061042d60048036038101906104289190612f53565b6112d4565b60405161043a9190612ca3565b60405180910390f35b34801561044f57600080fd5b5061046a6004803603810190610465919061305f565b611388565b005b34801561047857600080fd5b50610493600480360381019061048e91906131cf565b61139e565b005b3480156104a157600080fd5b506104bc60048036038101906104b791906132f3565b611400565b6040516104c99190612e14565b60405180910390f35b3480156104de57600080fd5b506104f960048036038101906104f4919061333c565b611448565b005b34801561050757600080fd5b50610522600480360381019061051d9190612da6565b611523565b60405161052f9190612d4e565b60405180910390f35b34801561054457600080fd5b5061055f600480360381019061055a91906132f3565b611635565b60405161056c9190612fdc565b60405180910390f35b34801561058157600080fd5b5061059c600480360381019061059791906133bd565b611694565b6040516105a99190612ca3565b60405180910390f35b3480156105be57600080fd5b506105c7611728565b6040516105d49190613509565b60405180910390f35b60007f80ac58cd000000000000000000000000000000000000000000000000000000007bffffffffffffffffffffffffffffffffffffffffffffffffffffffff1916827bffffffffffffffffffffffffffffffffffffffffffffffffffffffff191614806106a857507f5b5e139f000000000000000000000000000000000000000000000000000000007bffffffffffffffffffffffffffffffffffffffffffffffffffffffff1916827bffffffffffffffffffffffffffffffffffffffffffffffffffffffff1916145b806106b857506106b782611985565b5b9050919050565b600880546106cc9061355a565b80601f01602080910402602001604051908101604052809291908181526020018280546106f89061355a565b80156107455780601f1061071a57610100808354040283529160200191610745565b820191906000526020600020905b81548152906001019060200180831161072857829003601f168201915b505050505081565b60606000805461075c9061355a565b80601f01602080910402602001604051908101604052809291908181526020018280546107889061355a565b80156107d55780601f106107aa576101008083540402835291602001916107d5565b820191906000526020600020905b8154815290600101906020018083116107b857829003601f168201915b5050505050905090565b60006107ea826119ef565b6004600083815260200190815260200160002060009054906101000a900473ffffffffffffffffffffffffffffffffffffffff169050919050565b60006108308261105c565b90508073ffffffffffffffffffffffffffffffffffffffff168373ffffffffffffffffffffffffffffffffffffffff16036108a0576040517f08c379a0000000000000000000000000000000000000000000000000000000008152600401610897906135fd565b60405180910390fd5b8073ffffffffffffffffffffffffffffffffffffffff166108bf611a3a565b73ffffffffffffffffffffffffffffffffffffffff1614806108ee57506108ed816108e8611a3a565b611694565b5b61092d576040517f08c379a00000000000000000000000000000000000000000000000000000000081526004016109249061368f565b60405180910390fd5b6109378383611a42565b505050565b61094d610947611a3a565b82611afb565b61098c576040517f08c379a000000000000000000000000000000000000000000000000000000000815260040161098390613721565b60405180910390fd5b610997838383611b90565b505050565b6109a46111ea565b6109ad57600080fd5b600047905060003373ffffffffffffffffffffffffffffffffffffffff16826040516109d890613772565b60006040518083038185875af1925050503d8060008114610a15576040519150601f19603f3d011682016040523d82523d6000602084013e610a1a565b606091505b5050905080610a5e576040517f08c379a0000000000000000000000000000000000000000000000000000000008152600401610a55906137d3565b60405180910390fd5b5050565b600073ffffffffffffffffffffffffffffffffffffffff16600d8383604051610a8c929190613823565b908152602001604051809103902060009054906101000a900473ffffffffffffffffffffffffffffffffffffffff1673ffffffffffffffffffffffffffffffffffffffff1614610b08576040517f3a81d6fc00000000000000000000000000000000000000000000000000000000815260040160405180910390fd5b610b1282826112d4565b610b555781816040517f7f19f48d000000000000000000000000000000000000000000000000000000008152600401610b4c929190613869565b60405180910390fd5b600073ffffffffffffffffffffffffffffffffffffffff16600d8383604051610b7f929190613823565b908152602001604051809103902060009054906101000a900473ffffffffffffffffffffffffffffffffffffffff1673ffffffffffffffffffffffffffffffffffffffff1614610bce57600080fd5b6000610c1d83838080601f016020809104026020016040519081016040528093929190818152602001838380828437600081840152601f19601f82011690508083019250505050505050611635565b905080341015610c62576040517f08c379a0000000000000000000000000000000000000000000000000000000008152600401610c59906138d9565b60405180910390fd5b600083836008604051602001610c7a939291906139dd565b60405160208183030381529060405290506000600b82600c604051602001610ca493929190613a3f565b60405160208183030381529060405290506000610cc16007611df6565b90506000610d1287878080601f016020809104026020016040519081016040528093929190818152602001838380828437600081840152601f19601f82011690508083019250505050505050611e04565b90506000610d1f82611fb9565b9050610e136040518060600160405280603181526020016148e16031913989898080601f016020809104026020016040519081016040528093929190818152602001838380828437600081840152601f19601f8201169050808301925050505050505060088054610d8f9061355a565b80601f0160208091040260200160405190810160405280929190818152602001828054610dbb9061355a565b8015610e085780601f10610ddd57610100808354040283529160200191610e08565b820191906000526020600020905b815481529060010190602001808311610deb57829003601f168201915b505050505086612119565b6000610e4986610e22876121bb565b84604051602001610e3593929190613c12565b6040516020818303038152906040526121bb565b9050600081604051602001610e5e9190613cbb565b6040516020818303038152906040529050610e906040518060600160405280603981526020016148a860399139612352565b610ecf6040518060400160405280600e81526020017f46696e616c20746f6b656e555249000000000000000000000000000000000000815250826118e9565b610ef060405180606001604052806039815260200161491260399139612352565b610efa33866123eb565b610f048582612409565b33600d8b8b604051610f17929190613823565b908152602001604051809103902060006101000a81548173ffffffffffffffffffffffffffffffffffffffff021916908373ffffffffffffffffffffffffffffffffffffffff1602179055508989600960008881526020019081526020016000209182610f85929190613e7f565b50610f906007612476565b50505050505050505050565b610fb78383836040518060200160405280600081525061139e565b505050565b60096020528060005260406000206000915090508054610fdb9061355a565b80601f01602080910402602001604051908101604052809291908181526020018280546110079061355a565b80156110545780601f1061102957610100808354040283529160200191611054565b820191906000526020600020905b81548152906001019060200180831161103757829003601f168201915b505050505081565b6000806002600084815260200190815260200160002060009054906101000a900473ffffffffffffffffffffffffffffffffffffffff169050600073ffffffffffffffffffffffffffffffffffffffff168173ffffffffffffffffffffffffffffffffffffffff1603611104576040517f08c379a00000000000000000000000000000000000000000000000000000000081526004016110fb90613f9b565b60405180910390fd5b80915050919050565b60008073ffffffffffffffffffffffffffffffffffffffff168273ffffffffffffffffffffffffffffffffffffffff160361117d576040517f08c379a00000000000000000000000000000000000000000000000000000000081526004016111749061402d565b60405180910390fd5b600360008373ffffffffffffffffffffffffffffffffffffffff1673ffffffffffffffffffffffffffffffffffffffff168152602001908152602001600020549050919050565b600a60009054906101000a900473ffffffffffffffffffffffffffffffffffffffff1681565b6000600a60009054906101000a900473ffffffffffffffffffffffffffffffffffffffff1673ffffffffffffffffffffffffffffffffffffffff163373ffffffffffffffffffffffffffffffffffffffff1614905090565b6060600180546112519061355a565b80601f016020809104026020016040519081016040528092919081815260200182805461127d9061355a565b80156112ca5780601f1061129f576101008083540402835291602001916112ca565b820191906000526020600020905b8154815290600101906020018083116112ad57829003601f168201915b5050505050905090565b6000600361132584848080601f016020809104026020016040519081016040528093929190818152602001838380828437600081840152601f19601f82011690508083019250505050505050611e04565b101580156113805750600a61137d84848080601f016020809104026020016040519081016040528093929190818152602001838380828437600081840152601f19601f82011690508083019250505050505050611e04565b11155b905092915050565b61139a611393611a3a565b838361248c565b5050565b6113af6113a9611a3a565b83611afb565b6113ee576040517f08c379a00000000000000000000000000000000000000000000000000000000081526004016113e590613721565b60405180910390fd5b6113fa848484846125f8565b50505050565b6000600d82604051611412919061404d565b908152602001604051809103902060009054906101000a900473ffffffffffffffffffffffffffffffffffffffff169050919050565b600d848460405161145a929190613823565b908152602001604051809103902060009054906101000a900473ffffffffffffffffffffffffffffffffffffffff1673ffffffffffffffffffffffffffffffffffffffff163373ffffffffffffffffffffffffffffffffffffffff16146114ed576040517f82b4290000000000000000000000000000000000000000000000000000000000815260040160405180910390fd5b8181600e8686604051611501929190613823565b9081526020016040518091039020918261151c929190613e7f565b5050505050565b606061152e826119ef565b600060066000848152602001908152602001600020805461154e9061355a565b80601f016020809104026020016040519081016040528092919081815260200182805461157a9061355a565b80156115c75780601f1061159c576101008083540402835291602001916115c7565b820191906000526020600020905b8154815290600101906020018083116115aa57829003601f168201915b5050505050905060006115d8612654565b905060008151036115ed578192505050611630565b60008251111561162257808260405160200161160a929190614064565b60405160208183030381529060405292505050611630565b61162b8461266b565b925050505b919050565b60008061164183611e04565b90506000811161165057600080fd5b60038103611669576706f05b59d3b2000091505061168f565b6004810361168257670429d069189e000091505061168f565b67016345785d8a00009150505b919050565b6000600560008473ffffffffffffffffffffffffffffffffffffffff1673ffffffffffffffffffffffffffffffffffffffff16815260200190815260200160002060008373ffffffffffffffffffffffffffffffffffffffff1673ffffffffffffffffffffffffffffffffffffffff16815260200190815260200160002060009054906101000a900460ff16905092915050565b606061174b60405180606001604052806027815260200161488160279139612352565b60006117576007611df6565b67ffffffffffffffff8111156117705761176f6130a4565b5b6040519080825280602002602001820160405280156117a357816020015b606081526020019060019003908161178e5790505b50905060005b6117b36007611df6565b8110156118e1576009600082815260200190815260200160002080546117d89061355a565b80601f01602080910402602001604051908101604052809291908181526020018280546118049061355a565b80156118515780601f1061182657610100808354040283529160200191611851565b820191906000526020600020905b81548152906001019060200180831161183457829003601f168201915b505050505082828151811061186957611868614088565b5b60200260200101819052506118ce6040518060400160405280601781526020017f4e616d6520666f7220746f6b656e202564206973202573000000000000000000815250828484815181106118c1576118c0614088565b5b60200260200101516126d3565b80806118d9906140e6565b9150506117a9565b508091505090565b61198182826040516024016118ff92919061412e565b6040516020818303038152906040527f4b5c4277000000000000000000000000000000000000000000000000000000007bffffffffffffffffffffffffffffffffffffffffffffffffffffffff19166020820180517bffffffffffffffffffffffffffffffffffffffffffffffffffffffff8381831617835250505050612772565b5050565b60007f01ffc9a7000000000000000000000000000000000000000000000000000000007bffffffffffffffffffffffffffffffffffffffffffffffffffffffff1916827bffffffffffffffffffffffffffffffffffffffffffffffffffffffff1916149050919050565b6119f88161279b565b611a37576040517f08c379a0000000000000000000000000000000000000000000000000000000008152600401611a2e90613f9b565b60405180910390fd5b50565b600033905090565b816004600083815260200190815260200160002060006101000a81548173ffffffffffffffffffffffffffffffffffffffff021916908373ffffffffffffffffffffffffffffffffffffffff160217905550808273ffffffffffffffffffffffffffffffffffffffff16611ab58361105c565b73ffffffffffffffffffffffffffffffffffffffff167f8c5be1e5ebec7d5bd14f71427d1e84f3dd0314c0f7b2291e5b200ac8c7c3b92560405160405180910390a45050565b600080611b078361105c565b90508073ffffffffffffffffffffffffffffffffffffffff168473ffffffffffffffffffffffffffffffffffffffff161480611b495750611b488185611694565b5b80611b8757508373ffffffffffffffffffffffffffffffffffffffff16611b6f846107df565b73ffffffffffffffffffffffffffffffffffffffff16145b91505092915050565b8273ffffffffffffffffffffffffffffffffffffffff16611bb08261105c565b73ffffffffffffffffffffffffffffffffffffffff1614611c06576040517f08c379a0000000000000000000000000000000000000000000000000000000008152600401611bfd906141d7565b60405180910390fd5b600073ffffffffffffffffffffffffffffffffffffffff168273ffffffffffffffffffffffffffffffffffffffff1603611c75576040517f08c379a0000000000000000000000000000000000000000000000000000000008152600401611c6c90614269565b60405180910390fd5b611c80838383612807565b611c8b600082611a42565b6001600360008573ffffffffffffffffffffffffffffffffffffffff1673ffffffffffffffffffffffffffffffffffffffff1681526020019081526020016000206000828254611cdb9190614289565b925050819055506001600360008473ffffffffffffffffffffffffffffffffffffffff1673ffffffffffffffffffffffffffffffffffffffff1681526020019081526020016000206000828254611d3291906142bd565b92505081905550816002600083815260200190815260200160002060006101000a81548173ffffffffffffffffffffffffffffffffffffffff021916908373ffffffffffffffffffffffffffffffffffffffff160217905550808273ffffffffffffffffffffffffffffffffffffffff168473ffffffffffffffffffffffffffffffffffffffff167fddf252ad1be2c89b69c2b068fc378daa952ba7f163c4a11628f55a4df523b3ef60405160405180910390a4611df183838361280c565b505050565b600081600001549050919050565b60008060008084519050600092505b80821015611fae576000858381518110611e3057611e2f614088565b5b602001015160f81c60f81b9050608060f81b817effffffffffffffffffffffffffffffffffffffffffffffffffffffffffffff19161015611e7f57600183611e7891906142bd565b9250611f9a565b60e060f81b817effffffffffffffffffffffffffffffffffffffffffffffffffffffffffffff19161015611ec157600283611eba91906142bd565b9250611f99565b60f060f81b817effffffffffffffffffffffffffffffffffffffffffffffffffffffffffffff19161015611f0357600383611efc91906142bd565b9250611f98565b60f8801b817effffffffffffffffffffffffffffffffffffffffffffffffffffffffffffff19161015611f4457600483611f3d91906142bd565b9250611f97565b60fc60f81b817effffffffffffffffffffffffffffffffffffffffffffffffffffffffffffff19161015611f8657600583611f7f91906142bd565b9250611f96565b600683611f9391906142bd565b92505b5b5b5b5b508280611fa6906140e6565b935050611e13565b829350505050919050565b606060008203612000576040518060400160405280600181526020017f30000000000000000000000000000000000000000000000000000000000000008152509050612114565b600082905060005b6000821461203257808061201b906140e6565b915050600a8261202b9190614320565b9150612008565b60008167ffffffffffffffff81111561204e5761204d6130a4565b5b6040519080825280601f01601f1916602001820160405280156120805781602001600182028036833780820191505090505b5090505b6000851461210d576001826120999190614289565b9150600a856120a89190614351565b60306120b491906142bd565b60f81b8183815181106120ca576120c9614088565b5b60200101907effffffffffffffffffffffffffffffffffffffffffffffffffffffffffffff1916908160001a905350600a856121069190614320565b9450612084565b8093505050505b919050565b6121b5848484846040516024016121339493929190614382565b6040516020818303038152906040527f8eafb02b000000000000000000000000000000000000000000000000000000007bffffffffffffffffffffffffffffffffffffffffffffffffffffffff19166020820180517bffffffffffffffffffffffffffffffffffffffffffffffffffffffff8381831617835250505050612772565b50505050565b6060600082519050600081036121e3576040518060200160405280600081525091505061234d565b600060036002836121f491906142bd565b6121fe9190614320565b600461220a91906143dc565b9050600060208261221b91906142bd565b67ffffffffffffffff811115612234576122336130a4565b5b6040519080825280601f01601f1916602001820160405280156122665781602001600182028036833780820191505090505b509050600060405180606001604052806040815260200161494b604091399050600181016020830160005b8681101561230a5760038101905062ffffff818a015116603f8160121c168401518060081b905060ff603f83600c1c1686015116810190508060081b905060ff603f8360061c1686015116810190508060081b905060ff603f831686015116810190508060e01b90508084526004840193505050612291565b50600386066001811461232457600281146123345761233f565b613d3d60f01b600283035261233f565b603d60f81b60018303525b508484525050819450505050505b919050565b6123e8816040516024016123669190612d4e565b6040516020818303038152906040527f41304fac000000000000000000000000000000000000000000000000000000007bffffffffffffffffffffffffffffffffffffffffffffffffffffffff19166020820180517bffffffffffffffffffffffffffffffffffffffffffffffffffffffff8381831617835250505050612772565b50565b612405828260405180602001604052806000815250612811565b5050565b6124128261279b565b612451576040517f08c379a000000000000000000000000000000000000000000000000000000000815260040161244890614490565b60405180910390fd5b8060066000848152602001908152602001600020908161247191906144b0565b505050565b6001816000016000828254019250508190555050565b8173ffffffffffffffffffffffffffffffffffffffff168373ffffffffffffffffffffffffffffffffffffffff16036124fa576040517f08c379a00000000000000000000000000000000000000000000000000000000081526004016124f1906145ce565b60405180910390fd5b80600560008573ffffffffffffffffffffffffffffffffffffffff1673ffffffffffffffffffffffffffffffffffffffff16815260200190815260200160002060008473ffffffffffffffffffffffffffffffffffffffff1673ffffffffffffffffffffffffffffffffffffffff16815260200190815260200160002060006101000a81548160ff0219169083151502179055508173ffffffffffffffffffffffffffffffffffffffff168373ffffffffffffffffffffffffffffffffffffffff167f17307eab39ab6107e8899845ad3d59bd9653f200f220920489ca2b5937696c31836040516125eb9190612ca3565b60405180910390a3505050565b612603848484611b90565b61260f8484848461286c565b61264e576040517f08c379a000000000000000000000000000000000000000000000000000000000815260040161264590614660565b60405180910390fd5b50505050565b606060405180602001604052806000815250905090565b6060612676826119ef565b6000612680612654565b905060008151116126a057604051806020016040528060008152506126cb565b806126aa84611fb9565b6040516020016126bb929190614064565b6040516020818303038152906040525b915050919050565b61276d8383836040516024016126eb93929190614680565b6040516020818303038152906040527f5970e089000000000000000000000000000000000000000000000000000000007bffffffffffffffffffffffffffffffffffffffffffffffffffffffff19166020820180517bffffffffffffffffffffffffffffffffffffffffffffffffffffffff8381831617835250505050612772565b505050565b60008151905060006a636f6e736f6c652e6c6f679050602083016000808483855afa5050505050565b60008073ffffffffffffffffffffffffffffffffffffffff166002600084815260200190815260200160002060009054906101000a900473ffffffffffffffffffffffffffffffffffffffff1673ffffffffffffffffffffffffffffffffffffffff1614159050919050565b505050565b505050565b61281b83836129f3565b612828600084848461286c565b612867576040517f08c379a000000000000000000000000000000000000000000000000000000000815260040161285e90614660565b60405180910390fd5b505050565b600061288d8473ffffffffffffffffffffffffffffffffffffffff16612bcc565b156129e6578373ffffffffffffffffffffffffffffffffffffffff1663150b7a026128b6611a3a565b8786866040518563ffffffff1660e01b81526004016128d8949392919061471a565b6020604051808303816000875af192505050801561291457506040513d601f19601f82011682018060405250810190612911919061477b565b60015b612996573d8060008114612944576040519150601f19603f3d011682016040523d82523d6000602084013e612949565b606091505b50600081510361298e576040517f08c379a000000000000000000000000000000000000000000000000000000000815260040161298590614660565b60405180910390fd5b805181602001fd5b63150b7a0260e01b7bffffffffffffffffffffffffffffffffffffffffffffffffffffffff1916817bffffffffffffffffffffffffffffffffffffffffffffffffffffffff1916149150506129eb565b600190505b949350505050565b600073ffffffffffffffffffffffffffffffffffffffff168273ffffffffffffffffffffffffffffffffffffffff1603612a62576040517f08c379a0000000000000000000000000000000000000000000000000000000008152600401612a59906147f4565b60405180910390fd5b612a6b8161279b565b15612aab576040517f08c379a0000000000000000000000000000000000000000000000000000000008152600401612aa290614860565b60405180910390fd5b612ab760008383612807565b6001600360008473ffffffffffffffffffffffffffffffffffffffff1673ffffffffffffffffffffffffffffffffffffffff1681526020019081526020016000206000828254612b0791906142bd565b92505081905550816002600083815260200190815260200160002060006101000a81548173ffffffffffffffffffffffffffffffffffffffff021916908373ffffffffffffffffffffffffffffffffffffffff160217905550808273ffffffffffffffffffffffffffffffffffffffff16600073ffffffffffffffffffffffffffffffffffffffff167fddf252ad1be2c89b69c2b068fc378daa952ba7f163c4a11628f55a4df523b3ef60405160405180910390a4612bc86000838361280c565b5050565b6000808273ffffffffffffffffffffffffffffffffffffffff163b119050919050565b6000604051905090565b600080fd5b600080fd5b60007fffffffff0000000000000000000000000000000000000000000000000000000082169050919050565b612c3881612c03565b8114612c4357600080fd5b50565b600081359050612c5581612c2f565b92915050565b600060208284031215612c7157612c70612bf9565b5b6000612c7f84828501612c46565b91505092915050565b60008115159050919050565b612c9d81612c88565b82525050565b6000602082019050612cb86000830184612c94565b92915050565b600081519050919050565b600082825260208201905092915050565b60005b83811015612cf8578082015181840152602081019050612cdd565b60008484015250505050565b6000601f19601f8301169050919050565b6000612d2082612cbe565b612d2a8185612cc9565b9350612d3a818560208601612cda565b612d4381612d04565b840191505092915050565b60006020820190508181036000830152612d688184612d15565b905092915050565b6000819050919050565b612d8381612d70565b8114612d8e57600080fd5b50565b600081359050612da081612d7a565b92915050565b600060208284031215612dbc57612dbb612bf9565b5b6000612dca84828501612d91565b91505092915050565b600073ffffffffffffffffffffffffffffffffffffffff82169050919050565b6000612dfe82612dd3565b9050919050565b612e0e81612df3565b82525050565b6000602082019050612e296000830184612e05565b92915050565b612e3881612df3565b8114612e4357600080fd5b50565b600081359050612e5581612e2f565b92915050565b60008060408385031215612e7257612e71612bf9565b5b6000612e8085828601612e46565b9250506020612e9185828601612d91565b9150509250929050565b600080600060608486031215612eb457612eb3612bf9565b5b6000612ec286828701612e46565b9350506020612ed386828701612e46565b9250506040612ee486828701612d91565b9150509250925092565b600080fd5b600080fd5b600080fd5b60008083601f840112612f1357612f12612eee565b5b8235905067ffffffffffffffff811115612f3057612f2f612ef3565b5b602083019150836001820283011115612f4c57612f4b612ef8565b5b9250929050565b60008060208385031215612f6a57612f69612bf9565b5b600083013567ffffffffffffffff811115612f8857612f87612bfe565b5b612f9485828601612efd565b92509250509250929050565b600060208284031215612fb657612fb5612bf9565b5b6000612fc484828501612e46565b91505092915050565b612fd681612d70565b82525050565b6000602082019050612ff16000830184612fcd565b92915050565b600061300282612dd3565b9050919050565b61301281612ff7565b82525050565b600060208201905061302d6000830184613009565b92915050565b61303c81612c88565b811461304757600080fd5b50565b60008135905061305981613033565b92915050565b6000806040838503121561307657613075612bf9565b5b600061308485828601612e46565b92505060206130958582860161304a565b9150509250929050565b600080fd5b7f4e487b7100000000000000000000000000000000000000000000000000000000600052604160045260246000fd5b6130dc82612d04565b810181811067ffffffffffffffff821117156130fb576130fa6130a4565b5b80604052505050565b600061310e612bef565b905061311a82826130d3565b919050565b600067ffffffffffffffff82111561313a576131396130a4565b5b61314382612d04565b9050602081019050919050565b82818337600083830152505050565b600061317261316d8461311f565b613104565b90508281526020810184848401111561318e5761318d61309f565b5b613199848285613150565b509392505050565b600082601f8301126131b6576131b5612eee565b5b81356131c684826020860161315f565b91505092915050565b600080600080608085870312156131e9576131e8612bf9565b5b60006131f787828801612e46565b945050602061320887828801612e46565b935050604061321987828801612d91565b925050606085013567ffffffffffffffff81111561323a57613239612bfe565b5b613246878288016131a1565b91505092959194509250565b600067ffffffffffffffff82111561326d5761326c6130a4565b5b61327682612d04565b9050602081019050919050565b600061329661329184613252565b613104565b9050828152602081018484840111156132b2576132b161309f565b5b6132bd848285613150565b509392505050565b600082601f8301126132da576132d9612eee565b5b81356132ea848260208601613283565b91505092915050565b60006020828403121561330957613308612bf9565b5b600082013567ffffffffffffffff81111561332757613326612bfe565b5b613333848285016132c5565b91505092915050565b6000806000806040858703121561335657613355612bf9565b5b600085013567ffffffffffffffff81111561337457613373612bfe565b5b61338087828801612efd565b9450945050602085013567ffffffffffffffff8111156133a3576133a2612bfe565b5b6133af87828801612efd565b925092505092959194509250565b600080604083850312156133d4576133d3612bf9565b5b60006133e285828601612e46565b92505060206133f385828601612e46565b9150509250929050565b600081519050919050565b600082825260208201905092915050565b6000819050602082019050919050565b600082825260208201905092915050565b600061344582612cbe565b61344f8185613429565b935061345f818560208601612cda565b61346881612d04565b840191505092915050565b600061347f838361343a565b905092915050565b6000602082019050919050565b600061349f826133fd565b6134a98185613408565b9350836020820285016134bb85613419565b8060005b858110156134f757848403895281516134d88582613473565b94506134e383613487565b925060208a019950506001810190506134bf565b50829750879550505050505092915050565b600060208201905081810360008301526135238184613494565b905092915050565b7f4e487b7100000000000000000000000000000000000000000000000000000000600052602260045260246000fd5b6000600282049050600182168061357257607f821691505b6020821081036135855761358461352b565b5b50919050565b7f4552433732313a20617070726f76616c20746f2063757272656e74206f776e6560008201527f7200000000000000000000000000000000000000000000000000000000000000602082015250565b60006135e7602183612cc9565b91506135f28261358b565b604082019050919050565b60006020820190508181036000830152613616816135da565b9050919050565b7f4552433732313a20617070726f76652063616c6c6572206973206e6f7420746f60008201527f6b656e206f776e6572206e6f7220617070726f76656420666f7220616c6c0000602082015250565b6000613679603e83612cc9565b91506136848261361d565b604082019050919050565b600060208201905081810360008301526136a88161366c565b9050919050565b7f4552433732313a2063616c6c6572206973206e6f7420746f6b656e206f776e6560008201527f72206e6f7220617070726f766564000000000000000000000000000000000000602082015250565b600061370b602e83612cc9565b9150613716826136af565b604082019050919050565b6000602082019050818103600083015261373a816136fe565b9050919050565b600081905092915050565b50565b600061375c600083613741565b91506137678261374c565b600082019050919050565b600061377d8261374f565b9150819050919050565b7f4661696c656420746f207769746864726177204d617469630000000000000000600082015250565b60006137bd601883612cc9565b91506137c882613787565b602082019050919050565b600060208201905081810360008301526137ec816137b0565b9050919050565b600081905092915050565b600061380a83856137f3565b9350613817838584613150565b82840190509392505050565b60006138308284866137fe565b91508190509392505050565b60006138488385612cc9565b9350613855838584613150565b61385e83612d04565b840190509392505050565b6000602082019050818103600083015261388481848661383c565b90509392505050565b7f596f7520617265206e6f7420686176696e6720656e6f756768206d6174696321600082015250565b60006138c3602083612cc9565b91506138ce8261388d565b602082019050919050565b600060208201905081810360008301526138f2816138b6565b9050919050565b7f2e00000000000000000000000000000000000000000000000000000000000000600082015250565b600061392f6001836137f3565b915061393a826138f9565b600182019050919050565b60008190508160005260206000209050919050565b600081546139678161355a565b61397181866137f3565b9450600182166000811461398c57600181146139a1576139d4565b60ff19831686528115158202860193506139d4565b6139aa85613945565b60005b838110156139cc578154818901526001820191506020810190506139ad565b838801955050505b50505092915050565b60006139ea8285876137fe565b91506139f582613922565b9150613a01828461395a565b9150819050949350505050565b6000613a1982612cbe565b613a2381856137f3565b9350613a33818560208601612cda565b80840191505092915050565b6000613a4b828661395a565b9150613a578285613a0e565b9150613a63828461395a565b9150819050949350505050565b7f7b226e616d65223a202200000000000000000000000000000000000000000000600082015250565b6000613aa6600a836137f3565b9150613ab182613a70565b600a82019050919050565b7f222c20226465736372697074696f6e223a20225468697320746869732071756160008201527f736172202c61206e6674206261736564206e616d652073657276696365206f6e60208201527f20706f6c79676f6e222c2022696d616765223a2022646174613a696d6167652f60408201527f7376672b786d6c3b6261736536342c0000000000000000000000000000000000606082015250565b6000613b64606f836137f3565b9150613b6f82613abc565b606f82019050919050565b7f222c226c656e677468223a220000000000000000000000000000000000000000600082015250565b6000613bb0600c836137f3565b9150613bbb82613b7a565b600c82019050919050565b7f227d000000000000000000000000000000000000000000000000000000000000600082015250565b6000613bfc6002836137f3565b9150613c0782613bc6565b600282019050919050565b6000613c1d82613a99565b9150613c298286613a0e565b9150613c3482613b57565b9150613c408285613a0e565b9150613c4b82613ba3565b9150613c578284613a0e565b9150613c6282613bef565b9150819050949350505050565b7f646174613a6170706c69636174696f6e2f6a736f6e3b6261736536342c000000600082015250565b6000613ca5601d836137f3565b9150613cb082613c6f565b601d82019050919050565b6000613cc682613c98565b9150613cd28284613a0e565b915081905092915050565b600082905092915050565b60006020601f8301049050919050565b600082821b905092915050565b600060088302613d357fffffffffffffffffffffffffffffffffffffffffffffffffffffffffffffffff82613cf8565b613d3f8683613cf8565b95508019841693508086168417925050509392505050565b6000819050919050565b6000613d7c613d77613d7284612d70565b613d57565b612d70565b9050919050565b6000819050919050565b613d9683613d61565b613daa613da282613d83565b848454613d05565b825550505050565b600090565b613dbf613db2565b613dca818484613d8d565b505050565b5b81811015613dee57613de3600082613db7565b600181019050613dd0565b5050565b601f821115613e3357613e0481613945565b613e0d84613ce8565b81016020851015613e1c578190505b613e30613e2885613ce8565b830182613dcf565b50505b505050565b600082821c905092915050565b6000613e5660001984600802613e38565b1980831691505092915050565b6000613e6f8383613e45565b9150826002028217905092915050565b613e898383613cdd565b67ffffffffffffffff811115613ea257613ea16130a4565b5b613eac825461355a565b613eb7828285613df2565b6000601f831160018114613ee65760008415613ed4578287013590505b613ede8582613e63565b865550613f46565b601f198416613ef486613945565b60005b82811015613f1c57848901358255600182019150602085019450602081019050613ef7565b86831015613f395784890135613f35601f891682613e45565b8355505b6001600288020188555050505b50505050505050565b7f4552433732313a20696e76616c696420746f6b656e2049440000000000000000600082015250565b6000613f85601883612cc9565b9150613f9082613f4f565b602082019050919050565b60006020820190508181036000830152613fb481613f78565b9050919050565b7f4552433732313a2061646472657373207a65726f206973206e6f74206120766160008201527f6c6964206f776e65720000000000000000000000000000000000000000000000602082015250565b6000614017602983612cc9565b915061402282613fbb565b604082019050919050565b600060208201905081810360008301526140468161400a565b9050919050565b60006140598284613a0e565b915081905092915050565b60006140708285613a0e565b915061407c8284613a0e565b91508190509392505050565b7f4e487b7100000000000000000000000000000000000000000000000000000000600052603260045260246000fd5b7f4e487b7100000000000000000000000000000000000000000000000000000000600052601160045260246000fd5b60006140f182612d70565b91507fffffffffffffffffffffffffffffffffffffffffffffffffffffffffffffffff8203614123576141226140b7565b5b600182019050919050565b600060408201905081810360008301526141488185612d15565b9050818103602083015261415c8184612d15565b90509392505050565b7f4552433732313a207472616e736665722066726f6d20696e636f72726563742060008201527f6f776e6572000000000000000000000000000000000000000000000000000000602082015250565b60006141c1602583612cc9565b91506141cc82614165565b604082019050919050565b600060208201905081810360008301526141f0816141b4565b9050919050565b7f4552433732313a207472616e7366657220746f20746865207a65726f2061646460008201527f7265737300000000000000000000000000000000000000000000000000000000602082015250565b6000614253602483612cc9565b915061425e826141f7565b604082019050919050565b6000602082019050818103600083015261428281614246565b9050919050565b600061429482612d70565b915061429f83612d70565b92508282039050818111156142b7576142b66140b7565b5b92915050565b60006142c882612d70565b91506142d383612d70565b92508282019050808211156142eb576142ea6140b7565b5b92915050565b7f4e487b7100000000000000000000000000000000000000000000000000000000600052601260045260246000fd5b600061432b82612d70565b915061433683612d70565b925082614346576143456142f1565b5b828204905092915050565b600061435c82612d70565b915061436783612d70565b925082614377576143766142f1565b5b828206905092915050565b6000608082019050818103600083015261439c8187612d15565b905081810360208301526143b08186612d15565b905081810360408301526143c48185612d15565b90506143d36060830184612fcd565b95945050505050565b60006143e782612d70565b91506143f283612d70565b925082820261440081612d70565b91508282048414831517614417576144166140b7565b5b5092915050565b7f45524337323155524953746f726167653a2055524920736574206f66206e6f6e60008201527f6578697374656e7420746f6b656e000000000000000000000000000000000000602082015250565b600061447a602e83612cc9565b91506144858261441e565b604082019050919050565b600060208201905081810360008301526144a98161446d565b9050919050565b6144b982612cbe565b67ffffffffffffffff8111156144d2576144d16130a4565b5b6144dc825461355a565b6144e7828285613df2565b600060209050601f83116001811461451a5760008415614508578287015190505b6145128582613e63565b86555061457a565b601f19841661452886613945565b60005b828110156145505784890151825560018201915060208501945060208101905061452b565b8683101561456d5784890151614569601f891682613e45565b8355505b6001600288020188555050505b505050505050565b7f4552433732313a20617070726f766520746f2063616c6c657200000000000000600082015250565b60006145b8601983612cc9565b91506145c382614582565b602082019050919050565b600060208201905081810360008301526145e7816145ab565b9050919050565b7f4552433732313a207472616e7366657220746f206e6f6e20455243373231526560008201527f63656976657220696d706c656d656e7465720000000000000000000000000000602082015250565b600061464a603283612cc9565b9150614655826145ee565b604082019050919050565b600060208201905081810360008301526146798161463d565b9050919050565b6000606082019050818103600083015261469a8186612d15565b90506146a96020830185612fcd565b81810360408301526146bb8184612d15565b9050949350505050565b600081519050919050565b600082825260208201905092915050565b60006146ec826146c5565b6146f681856146d0565b9350614706818560208601612cda565b61470f81612d04565b840191505092915050565b600060808201905061472f6000830187612e05565b61473c6020830186612e05565b6147496040830185612fcd565b818103606083015261475b81846146e1565b905095945050505050565b60008151905061477581612c2f565b92915050565b60006020828403121561479157614790612bf9565b5b600061479f84828501614766565b91505092915050565b7f4552433732313a206d696e7420746f20746865207a65726f2061646472657373600082015250565b60006147de602083612cc9565b91506147e9826147a8565b602082019050919050565b6000602082019050818103600083015261480d816147d1565b9050919050565b7f4552433732313a20746f6b656e20616c7265616479206d696e74656400000000600082015250565b600061484a601c83612cc9565b915061485582614814565b602082019050919050565b600060208201905081810360008301526148798161483d565b905091905056fe47657474696e6720616c6c20746865206e616d65732066726f6d2074686520636f6e74726163740a2d2d2d2d2d2d2d2d2d2d2d2d2d2d2d2d2d2d2d2d2d2d2d2d2d2d2d2d2d2d2d2d2d2d2d2d2d2d2d2d2d2d2d2d2d2d2d2d2d2d2d2d2d2d2d2d5265676973746572696e672025732e2573206f6e2074686520636f6e7472616374207769746820746f6b656e49442025642d2d2d2d2d2d2d2d2d2d2d2d2d2d2d2d2d2d2d2d2d2d2d2d2d2d2d2d2d2d2d2d2d2d2d2d2d2d2d2d2d2d2d2d2d2d2d2d2d2d2d2d2d2d2d2d0a4142434445464748494a4b4c4d4e4f505152535455565758595a6162636465666768696a6b6c6d6e6f707172737475767778797a303132333435363738392b2fa26469706673582212200933008f3cf832b25c90e1a50b27114dd3c2cc3d6a7f8565510992ea55fa544f64736f6c634300081100333c73766720786d6c6e733d22687474703a2f2f7777772e77332e6f72672f323030302f737667222077696474683d2232373022206865696768743d22323730222066696c6c3d226e6f6e65223e3c706174682066696c6c3d2275726c282342292220643d224d302030683237307632373048307a222f3e3c646566733e3c66696c7465722069643d22412220636f6c6f722d696e746572706f6c6174696f6e2d66696c746572733d2273524742222066696c746572556e6974733d227573657253706163654f6e55736522206865696768743d22323730222077696474683d22323730223e3c666544726f70536861646f772064783d2230222064793d22312220737464446576696174696f6e3d22322220666c6f6f642d6f7061636974793d222e323235222077696474683d223230302522206865696768743d2232303025222f3e3c2f66696c7465723e3c2f646566733e3c7061746820643d224d37322e3836332034322e393439632d2e3636382d2e3338372d312e3432362d2e35392d322e3139372d2e3539732d312e3532392e3230342d322e3139372e35396c2d31302e30383120362e3033322d362e383520332e3933342d31302e30383120362e303332632d2e3636382e3338372d312e3432362e35392d322e3139372e3539732d312e3532392d2e3230342d322e3139372d2e35396c2d382e3031332d342e37323161342e353220342e35322030203020312d312e3538392d312e363136632d2e3338342d2e3636352d2e3539342d312e3431382d2e3630382d322e313837762d392e3331632d2e3031332d2e3737352e3138352d312e3533382e3537322d322e32303861342e323520342e323520302030203120312e3632352d312e3539356c372e3838342d342e3539632e3636382d2e33383720312e3432362d2e353920322e3139372d2e353973312e3532392e32303420322e3139372e35396c372e38383420342e353961342e353220342e353220302030203120312e35383920312e363136632e3338342e3636352e35393420312e3431382e36303820322e31383776362e3033326c362e38352d342e303635762d362e303332632e3031332d2e3737352d2e3138352d312e3533382d2e3537322d322e32303861342e323520342e32352030203020302d312e3632352d312e3539354c34312e3435362032342e3539632d2e3636382d2e3338372d312e3432362d2e35392d322e3139372d2e3539732d312e3532392e3230342d322e3139372e35396c2d31342e38363420382e36353561342e323520342e32352030203020302d312e36323520312e353935632d2e3338372e36372d2e35383520312e3433342d2e35373220322e3230387631372e343431632d2e3031332e3737352e31383520312e3533382e35373220322e32303861342e323520342e323520302030203020312e36323520312e3539356c31342e38363420382e363535632e3636382e33383720312e3432362e353920322e3139372e353973312e3532392d2e32303420322e3139372d2e35396c31302e3038312d352e39303120362e38352d342e3036352031302e3038312d352e393031632e3636382d2e33383720312e3432362d2e353920322e3139372d2e353973312e3532392e32303420322e3139372e35396c372e38383420342e353961342e353220342e353220302030203120312e35383920312e363136632e3338342e3636352e35393420312e3431382e36303820322e31383776392e333131632e3031332e3737352d2e31383520312e3533382d2e35373220322e32303861342e323520342e32352030203020312d312e36323520312e3539356c2d372e38383420342e373231632d2e3636382e3338372d312e3432362e35392d322e3139372e3539732d312e3532392d2e3230342d322e3139372d2e35396c2d372e3838342d342e353961342e353220342e35322030203020312d312e3538392d312e363136632d2e3338352d2e3636352d2e3539342d312e3431382d2e3630382d322e313837762d362e3033326c2d362e383520342e30363576362e303332632d2e3031332e3737352e31383520312e3533382e35373220322e32303861342e323520342e323520302030203020312e36323520312e3539356c31342e38363420382e363535632e3636382e33383720312e3432362e353920322e3139372e353973312e3532392d2e32303420322e3139372d2e35396c31342e3836342d382e363535632e3635372d2e33393420312e3230342d2e393520312e3538392d312e363136732e3539342d312e3431382e3630392d322e3138375635352e353338632e3031332d2e3737352d2e3138352d312e3533382d2e3537322d322e32303861342e323520342e32352030203020302d312e3632352d312e3539356c2d31342e3939332d382e3738367a222066696c6c3d2223666666222f3e3c646566733e3c6c696e6561724772616469656e742069643d2242222078313d2230222079313d2230222078323d22323730222079323d2232373022206772616469656e74556e6974733d227573657253706163654f6e557365223e3c73746f702073746f702d636f6c6f723d2223636235656565222f3e3c73746f70206f66667365743d2231222073746f702d636f6c6f723d2223306364376534222073746f702d6f7061636974793d222e3939222f3e3c2f6c696e6561724772616469656e743e3c2f646566733e3c7465787420783d2233322e352220793d223233312220666f6e742d73697a653d223237222066696c6c3d2223666666222066696c7465723d2275726c282341292220666f6e742d66616d696c793d22506c7573204a616b617274612053616e732c44656a6156752053616e732c4e6f746f20436f6c6f7220456d6f6a692c4170706c6520436f6c6f7220456d6f6a692c73616e732d73657269662220666f6e742d7765696768743d22626f6c64223e446f6d61696e206465706c6f796564207375636365737366756c6c7920746f20706f6c79676f6e20",
  "linkReferences": {},
  "deployedLinkReferences": {}
}