{
    "_format": "hh-sol-artifact-1",
    "contractName": "polyDomain",
    "sourceName": "contracts/polyDomain.sol",
    "abi": [
        {
            "inputs": [
                {
                    "internalType": "string",
                    "name": "tld",
                    "type": "string"
                }
            ],
            "stateMutability": "payable",
            "type": "constructor"
        },
        {
            "anonymous": false,
            "inputs": [
                {
                    "indexed": true,
                    "internalType": "address",
                    "name": "owner",
                    "type": "address"
                },
                {
                    "indexed": true,
                    "internalType": "address",
                    "name": "approved",
                    "type": "address"
                },
                {
                    "indexed": true,
                    "internalType": "uint256",
                    "name": "tokenId",
                    "type": "uint256"
                }
            ],
            "name": "Approval",
            "type": "event"
        },
        {
            "anonymous": false,
            "inputs": [
                {
                    "indexed": true,
                    "internalType": "address",
                    "name": "owner",
                    "type": "address"
                },
                {
                    "indexed": true,
                    "internalType": "address",
                    "name": "operator",
                    "type": "address"
                },
                {
                    "indexed": false,
                    "internalType": "bool",
                    "name": "approved",
                    "type": "bool"
                }
            ],
            "name": "ApprovalForAll",
            "type": "event"
        },
        {
            "anonymous": false,
            "inputs": [
                {
                    "indexed": true,
                    "internalType": "address",
                    "name": "from",
                    "type": "address"
                },
                {
                    "indexed": true,
                    "internalType": "address",
                    "name": "to",
                    "type": "address"
                },
                {
                    "indexed": true,
                    "internalType": "uint256",
                    "name": "tokenId",
                    "type": "uint256"
                }
            ],
            "name": "Transfer",
            "type": "event"
        },
        {
            "inputs": [
                {
                    "internalType": "string",
                    "name": "name",
                    "type": "string"
                }
            ],
            "name": "Register",
            "outputs": [],
            "stateMutability": "payable",
            "type": "function"
        },
        {
            "inputs": [
                {
                    "internalType": "address",
                    "name": "to",
                    "type": "address"
                },
                {
                    "internalType": "uint256",
                    "name": "tokenId",
                    "type": "uint256"
                }
            ],
            "name": "approve",
            "outputs": [],
            "stateMutability": "nonpayable",
            "type": "function"
        },
        {
            "inputs": [
                {
                    "internalType": "address",
                    "name": "owner",
                    "type": "address"
                }
            ],
            "name": "balanceOf",
            "outputs": [
                {
                    "internalType": "uint256",
                    "name": "",
                    "type": "uint256"
                }
            ],
            "stateMutability": "view",
            "type": "function"
        },
        {
            "inputs": [
                {
                    "internalType": "string",
                    "name": "name",
                    "type": "string"
                }
            ],
            "name": "getAddress",
            "outputs": [
                {
                    "internalType": "address",
                    "name": "",
                    "type": "address"
                }
            ],
            "stateMutability": "view",
            "type": "function"
        },
        {
            "inputs": [
                {
                    "internalType": "uint256",
                    "name": "tokenId",
                    "type": "uint256"
                }
            ],
            "name": "getApproved",
            "outputs": [
                {
                    "internalType": "address",
                    "name": "",
                    "type": "address"
                }
            ],
            "stateMutability": "view",
            "type": "function"
        },
        {
            "inputs": [
                {
                    "internalType": "address",
                    "name": "owner",
                    "type": "address"
                },
                {
                    "internalType": "address",
                    "name": "operator",
                    "type": "address"
                }
            ],
            "name": "isApprovedForAll",
            "outputs": [
                {
                    "internalType": "bool",
                    "name": "",
                    "type": "bool"
                }
            ],
            "stateMutability": "view",
            "type": "function"
        },
        {
            "inputs": [],
            "name": "name",
            "outputs": [
                {
                    "internalType": "string",
                    "name": "",
                    "type": "string"
                }
            ],
            "stateMutability": "view",
            "type": "function"
        },
        {
            "inputs": [
                {
                    "internalType": "uint256",
                    "name": "tokenId",
                    "type": "uint256"
                }
            ],
            "name": "ownerOf",
            "outputs": [
                {
                    "internalType": "address",
                    "name": "",
                    "type": "address"
                }
            ],
            "stateMutability": "view",
            "type": "function"
        },
        {
            "inputs": [
                {
                    "internalType": "string",
                    "name": "name",
                    "type": "string"
                }
            ],
            "name": "priceofDomain",
            "outputs": [
                {
                    "internalType": "uint256",
                    "name": "",
                    "type": "uint256"
                }
            ],
            "stateMutability": "pure",
            "type": "function"
        },
        {
            "inputs": [
                {
                    "internalType": "address",
                    "name": "from",
                    "type": "address"
                },
                {
                    "internalType": "address",
                    "name": "to",
                    "type": "address"
                },
                {
                    "internalType": "uint256",
                    "name": "tokenId",
                    "type": "uint256"
                }
            ],
            "name": "safeTransferFrom",
            "outputs": [],
            "stateMutability": "nonpayable",
            "type": "function"
        },
        {
            "inputs": [
                {
                    "internalType": "address",
                    "name": "from",
                    "type": "address"
                },
                {
                    "internalType": "address",
                    "name": "to",
                    "type": "address"
                },
                {
                    "internalType": "uint256",
                    "name": "tokenId",
                    "type": "uint256"
                },
                {
                    "internalType": "bytes",
                    "name": "data",
                    "type": "bytes"
                }
            ],
            "name": "safeTransferFrom",
            "outputs": [],
            "stateMutability": "nonpayable",
            "type": "function"
        },
        {
            "inputs": [
                {
                    "internalType": "address",
                    "name": "operator",
                    "type": "address"
                },
                {
                    "internalType": "bool",
                    "name": "approved",
                    "type": "bool"
                }
            ],
            "name": "setApprovalForAll",
            "outputs": [],
            "stateMutability": "nonpayable",
            "type": "function"
        },
        {
            "inputs": [
                {
                    "internalType": "bytes4",
                    "name": "interfaceId",
                    "type": "bytes4"
                }
            ],
            "name": "supportsInterface",
            "outputs": [
                {
                    "internalType": "bool",
                    "name": "",
                    "type": "bool"
                }
            ],
            "stateMutability": "view",
            "type": "function"
        },
        {
            "inputs": [],
            "name": "symbol",
            "outputs": [
                {
                    "internalType": "string",
                    "name": "",
                    "type": "string"
                }
            ],
            "stateMutability": "view",
            "type": "function"
        },
        {
            "inputs": [
                {
                    "internalType": "uint256",
                    "name": "tokenId",
                    "type": "uint256"
                }
            ],
            "name": "tokenURI",
            "outputs": [
                {
                    "internalType": "string",
                    "name": "",
                    "type": "string"
                }
            ],
            "stateMutability": "view",
            "type": "function"
        },
        {
            "inputs": [],
            "name": "topld",
            "outputs": [
                {
                    "internalType": "string",
                    "name": "",
                    "type": "string"
                }
            ],
            "stateMutability": "view",
            "type": "function"
        },
        {
            "inputs": [
                {
                    "internalType": "address",
                    "name": "from",
                    "type": "address"
                },
                {
                    "internalType": "address",
                    "name": "to",
                    "type": "address"
                },
                {
                    "internalType": "uint256",
                    "name": "tokenId",
                    "type": "uint256"
                }
            ],
            "name": "transferFrom",
            "outputs": [],
            "stateMutability": "nonpayable",
            "type": "function"
        }
    ],
    "bytecode": "0x6080604052604051806108a0016040528061086b81526020016200435561086b913960099081620000319190620004c2565b506040518060400160405280600d81526020017f3c2f746578743e3c2f7376673e00000000000000000000000000000000000000815250600a9081620000789190620004c2565b5060405162004be838038062004be883398181016040528101906200009e91906200070d565b6040518060400160405280601381526020017f517561736172204e616d652053657276696365000000000000000000000000008152506040518060400160405280600681526020017f517561736172000000000000000000000000000000000000000000000000000081525081600090816200011b9190620004c2565b5080600190816200012d9190620004c2565b5050508060089081620001419190620004c2565b50620001728160405180606001604052806028815260200162004bc0602891396200017960201b620010441760201c565b50620007eb565b6200021b828260405160240162000192929190620007b0565b6040516020818303038152906040527f4b5c4277000000000000000000000000000000000000000000000000000000007bffffffffffffffffffffffffffffffffffffffffffffffffffffffff19166020820180517bffffffffffffffffffffffffffffffffffffffffffffffffffffffff83818316178352505050506200021f60201b60201c565b5050565b60008151905060006a636f6e736f6c652e6c6f679050602083016000808483855afa5050505050565b600081519050919050565b7f4e487b7100000000000000000000000000000000000000000000000000000000600052604160045260246000fd5b7f4e487b7100000000000000000000000000000000000000000000000000000000600052602260045260246000fd5b60006002820490506001821680620002ca57607f821691505b602082108103620002e057620002df62000282565b5b50919050565b60008190508160005260206000209050919050565b60006020601f8301049050919050565b600082821b905092915050565b6000600883026200034a7fffffffffffffffffffffffffffffffffffffffffffffffffffffffffffffffff826200030b565b6200035686836200030b565b95508019841693508086168417925050509392505050565b6000819050919050565b6000819050919050565b6000620003a36200039d62000397846200036e565b62000378565b6200036e565b9050919050565b6000819050919050565b620003bf8362000382565b620003d7620003ce82620003aa565b84845462000318565b825550505050565b600090565b620003ee620003df565b620003fb818484620003b4565b505050565b5b81811015620004235762000417600082620003e4565b60018101905062000401565b5050565b601f82111562000472576200043c81620002e6565b6200044784620002fb565b8101602085101562000457578190505b6200046f6200046685620002fb565b83018262000400565b50505b505050565b600082821c905092915050565b6000620004976000198460080262000477565b1980831691505092915050565b6000620004b2838362000484565b9150826002028217905092915050565b620004cd8262000248565b67ffffffffffffffff811115620004e957620004e862000253565b5b620004f58254620002b1565b6200050282828562000427565b600060209050601f8311600181146200053a576000841562000525578287015190505b620005318582620004a4565b865550620005a1565b601f1984166200054a86620002e6565b60005b8281101562000574578489015182556001820191506020850194506020810190506200054d565b8683101562000594578489015162000590601f89168262000484565b8355505b6001600288020188555050505b505050505050565b6000604051905090565b600080fd5b600080fd5b600080fd5b600080fd5b6000601f19601f8301169050919050565b620005e382620005c7565b810181811067ffffffffffffffff8211171562000605576200060462000253565b5b80604052505050565b60006200061a620005a9565b9050620006288282620005d8565b919050565b600067ffffffffffffffff8211156200064b576200064a62000253565b5b6200065682620005c7565b9050602081019050919050565b60005b838110156200068357808201518184015260208101905062000666565b60008484015250505050565b6000620006a6620006a0846200062d565b6200060e565b905082815260208101848484011115620006c557620006c4620005c2565b5b620006d284828562000663565b509392505050565b600082601f830112620006f257620006f1620005bd565b5b8151620007048482602086016200068f565b91505092915050565b600060208284031215620007265762000725620005b3565b5b600082015167ffffffffffffffff811115620007475762000746620005b8565b5b6200075584828501620006da565b91505092915050565b600082825260208201905092915050565b60006200077c8262000248565b6200078881856200075e565b93506200079a81856020860162000663565b620007a581620005c7565b840191505092915050565b60006040820190508181036000830152620007cc81856200076f565b90508181036020830152620007e281846200076f565b90509392505050565b613b5a80620007fb6000396000f3fe6080604052600436106100fe5760003560e01c80636352211e11610095578063b88d4fde11610064578063b88d4fde14610338578063bf40fac114610361578063c87b56dd1461039e578063e709c64f146103db578063e985e9c514610418576100fe565b80636352211e1461026a57806370a08231146102a757806395d89b41146102e4578063a22cb4651461030f576100fe565b8063095ea7b3116100d1578063095ea7b3146101d357806323b872dd146101fc57806340b2d3af1461022557806342842e0e14610241576100fe565b806301ffc9a7146101035780630558b70d1461014057806306fdde031461016b578063081812fc14610196575b600080fd5b34801561010f57600080fd5b5061012a60048036038101906101259190612317565b610455565b604051610137919061235f565b60405180910390f35b34801561014c57600080fd5b50610155610537565b604051610162919061240a565b60405180910390f35b34801561017757600080fd5b506101806105c5565b60405161018d919061240a565b60405180910390f35b3480156101a257600080fd5b506101bd60048036038101906101b89190612462565b610657565b6040516101ca91906124d0565b60405180910390f35b3480156101df57600080fd5b506101fa60048036038101906101f59190612517565b61069d565b005b34801561020857600080fd5b50610223600480360381019061021e9190612557565b6107b4565b005b61023f600480360381019061023a91906126df565b610814565b005b34801561024d57600080fd5b5061026860048036038101906102639190612557565b610b65565b005b34801561027657600080fd5b50610291600480360381019061028c9190612462565b610b85565b60405161029e91906124d0565b60405180910390f35b3480156102b357600080fd5b506102ce60048036038101906102c99190612728565b610c36565b6040516102db9190612764565b60405180910390f35b3480156102f057600080fd5b506102f9610ced565b604051610306919061240a565b60405180910390f35b34801561031b57600080fd5b50610336600480360381019061033191906127ab565b610d7f565b005b34801561034457600080fd5b5061035f600480360381019061035a919061288c565b610d95565b005b34801561036d57600080fd5b50610388600480360381019061038391906126df565b610df7565b60405161039591906124d0565b60405180910390f35b3480156103aa57600080fd5b506103c560048036038101906103c09190612462565b610e3f565b6040516103d2919061240a565b60405180910390f35b3480156103e757600080fd5b5061040260048036038101906103fd91906126df565b610f51565b60405161040f9190612764565b60405180910390f35b34801561042457600080fd5b5061043f600480360381019061043a919061290f565b610fb0565b60405161044c919061235f565b60405180910390f35b60007f80ac58cd000000000000000000000000000000000000000000000000000000007bffffffffffffffffffffffffffffffffffffffffffffffffffffffff1916827bffffffffffffffffffffffffffffffffffffffffffffffffffffffff1916148061052057507f5b5e139f000000000000000000000000000000000000000000000000000000007bffffffffffffffffffffffffffffffffffffffffffffffffffffffff1916827bffffffffffffffffffffffffffffffffffffffffffffffffffffffff1916145b80610530575061052f826110e0565b5b9050919050565b600880546105449061297e565b80601f01602080910402602001604051908101604052809291908181526020018280546105709061297e565b80156105bd5780601f10610592576101008083540402835291602001916105bd565b820191906000526020600020905b8154815290600101906020018083116105a057829003601f168201915b505050505081565b6060600080546105d49061297e565b80601f01602080910402602001604051908101604052809291908181526020018280546106009061297e565b801561064d5780601f106106225761010080835404028352916020019161064d565b820191906000526020600020905b81548152906001019060200180831161063057829003601f168201915b5050505050905090565b60006106628261114a565b6004600083815260200190815260200160002060009054906101000a900473ffffffffffffffffffffffffffffffffffffffff169050919050565b60006106a882610b85565b90508073ffffffffffffffffffffffffffffffffffffffff168373ffffffffffffffffffffffffffffffffffffffff1603610718576040517f08c379a000000000000000000000000000000000000000000000000000000000815260040161070f90612a21565b60405180910390fd5b8073ffffffffffffffffffffffffffffffffffffffff16610737611195565b73ffffffffffffffffffffffffffffffffffffffff161480610766575061076581610760611195565b610fb0565b5b6107a5576040517f08c379a000000000000000000000000000000000000000000000000000000000815260040161079c90612ab3565b60405180910390fd5b6107af838361119d565b505050565b6107c56107bf611195565b82611256565b610804576040517f08c379a00000000000000000000000000000000000000000000000000000000081526004016107fb90612b45565b60405180910390fd5b61080f8383836112eb565b505050565b600073ffffffffffffffffffffffffffffffffffffffff16600b8260405161083c9190612ba1565b908152602001604051809103902060009054906101000a900473ffffffffffffffffffffffffffffffffffffffff1673ffffffffffffffffffffffffffffffffffffffff161461088b57600080fd5b600061089682610f51565b9050803410156108db576040517f08c379a00000000000000000000000000000000000000000000000000000000081526004016108d290612c04565b60405180910390fd5b60008260086040516020016108f1929190612d08565b60405160208183030381529060405290506000600982600a60405160200161091b93929190612d37565b604051602081830303815290604052905060006109386007611551565b905060006109458661155f565b9050600061095282611714565b9050610a02604051806060016040528060318152602001613a7b60319139886008805461097e9061297e565b80601f01602080910402602001604051908101604052809291908181526020018280546109aa9061297e565b80156109f75780601f106109cc576101008083540402835291602001916109f7565b820191906000526020600020905b8154815290600101906020018083116109da57829003601f168201915b505050505086611874565b6000610a3886610a1187611916565b84604051602001610a2493929190612f0a565b604051602081830303815290604052611916565b9050600081604051602001610a4d9190612fb3565b6040516020818303038152906040529050610a7f604051806060016040528060398152602001613a4260399139611aad565b610abe6040518060400160405280600e81526020017f46696e616c20746f6b656e55524900000000000000000000000000000000000081525082611044565b610adf604051806060016040528060398152602001613aac60399139611aad565b610ae93386611b46565b610af38582611b64565b33600b8a604051610b049190612ba1565b908152602001604051809103902060006101000a81548173ffffffffffffffffffffffffffffffffffffffff021916908373ffffffffffffffffffffffffffffffffffffffff160217905550610b5a6007611bd1565b505050505050505050565b610b8083838360405180602001604052806000815250610d95565b505050565b6000806002600084815260200190815260200160002060009054906101000a900473ffffffffffffffffffffffffffffffffffffffff169050600073ffffffffffffffffffffffffffffffffffffffff168173ffffffffffffffffffffffffffffffffffffffff1603610c2d576040517f08c379a0000000000000000000000000000000000000000000000000000000008152600401610c2490613021565b60405180910390fd5b80915050919050565b60008073ffffffffffffffffffffffffffffffffffffffff168273ffffffffffffffffffffffffffffffffffffffff1603610ca6576040517f08c379a0000000000000000000000000000000000000000000000000000000008152600401610c9d906130b3565b60405180910390fd5b600360008373ffffffffffffffffffffffffffffffffffffffff1673ffffffffffffffffffffffffffffffffffffffff168152602001908152602001600020549050919050565b606060018054610cfc9061297e565b80601f0160208091040260200160405190810160405280929190818152602001828054610d289061297e565b8015610d755780601f10610d4a57610100808354040283529160200191610d75565b820191906000526020600020905b815481529060010190602001808311610d5857829003601f168201915b5050505050905090565b610d91610d8a611195565b8383611be7565b5050565b610da6610da0611195565b83611256565b610de5576040517f08c379a0000000000000000000000000000000000000000000000000000000008152600401610ddc90612b45565b60405180910390fd5b610df184848484611d53565b50505050565b6000600b82604051610e099190612ba1565b908152602001604051809103902060009054906101000a900473ffffffffffffffffffffffffffffffffffffffff169050919050565b6060610e4a8261114a565b6000600660008481526020019081526020016000208054610e6a9061297e565b80601f0160208091040260200160405190810160405280929190818152602001828054610e969061297e565b8015610ee35780601f10610eb857610100808354040283529160200191610ee3565b820191906000526020600020905b815481529060010190602001808311610ec657829003601f168201915b505050505090506000610ef4611daf565b90506000815103610f09578192505050610f4c565b600082511115610f3e578082604051602001610f269291906130d3565b60405160208183030381529060405292505050610f4c565b610f4784611dc6565b925050505b919050565b600080610f5d8361155f565b905060008111610f6c57600080fd5b60038103610f85576706f05b59d3b20000915050610fab565b60048103610f9e57670429d069189e0000915050610fab565b67016345785d8a00009150505b919050565b6000600560008473ffffffffffffffffffffffffffffffffffffffff1673ffffffffffffffffffffffffffffffffffffffff16815260200190815260200160002060008373ffffffffffffffffffffffffffffffffffffffff1673ffffffffffffffffffffffffffffffffffffffff16815260200190815260200160002060009054906101000a900460ff16905092915050565b6110dc828260405160240161105a9291906130f7565b6040516020818303038152906040527f4b5c4277000000000000000000000000000000000000000000000000000000007bffffffffffffffffffffffffffffffffffffffffffffffffffffffff19166020820180517bffffffffffffffffffffffffffffffffffffffffffffffffffffffff8381831617835250505050611e2e565b5050565b60007f01ffc9a7000000000000000000000000000000000000000000000000000000007bffffffffffffffffffffffffffffffffffffffffffffffffffffffff1916827bffffffffffffffffffffffffffffffffffffffffffffffffffffffff1916149050919050565b61115381611e57565b611192576040517f08c379a000000000000000000000000000000000000000000000000000000000815260040161118990613021565b60405180910390fd5b50565b600033905090565b816004600083815260200190815260200160002060006101000a81548173ffffffffffffffffffffffffffffffffffffffff021916908373ffffffffffffffffffffffffffffffffffffffff160217905550808273ffffffffffffffffffffffffffffffffffffffff1661121083610b85565b73ffffffffffffffffffffffffffffffffffffffff167f8c5be1e5ebec7d5bd14f71427d1e84f3dd0314c0f7b2291e5b200ac8c7c3b92560405160405180910390a45050565b60008061126283610b85565b90508073ffffffffffffffffffffffffffffffffffffffff168473ffffffffffffffffffffffffffffffffffffffff1614806112a457506112a38185610fb0565b5b806112e257508373ffffffffffffffffffffffffffffffffffffffff166112ca84610657565b73ffffffffffffffffffffffffffffffffffffffff16145b91505092915050565b8273ffffffffffffffffffffffffffffffffffffffff1661130b82610b85565b73ffffffffffffffffffffffffffffffffffffffff1614611361576040517f08c379a0000000000000000000000000000000000000000000000000000000008152600401611358906131a0565b60405180910390fd5b600073ffffffffffffffffffffffffffffffffffffffff168273ffffffffffffffffffffffffffffffffffffffff16036113d0576040517f08c379a00000000000000000000000000000000000000000000000000000000081526004016113c790613232565b60405180910390fd5b6113db838383611ec3565b6113e660008261119d565b6001600360008573ffffffffffffffffffffffffffffffffffffffff1673ffffffffffffffffffffffffffffffffffffffff16815260200190815260200160002060008282546114369190613281565b925050819055506001600360008473ffffffffffffffffffffffffffffffffffffffff1673ffffffffffffffffffffffffffffffffffffffff168152602001908152602001600020600082825461148d91906132b5565b92505081905550816002600083815260200190815260200160002060006101000a81548173ffffffffffffffffffffffffffffffffffffffff021916908373ffffffffffffffffffffffffffffffffffffffff160217905550808273ffffffffffffffffffffffffffffffffffffffff168473ffffffffffffffffffffffffffffffffffffffff167fddf252ad1be2c89b69c2b068fc378daa952ba7f163c4a11628f55a4df523b3ef60405160405180910390a461154c838383611ec8565b505050565b600081600001549050919050565b60008060008084519050600092505b8082101561170957600085838151811061158b5761158a6132e9565b5b602001015160f81c60f81b9050608060f81b817effffffffffffffffffffffffffffffffffffffffffffffffffffffffffffff191610156115da576001836115d391906132b5565b92506116f5565b60e060f81b817effffffffffffffffffffffffffffffffffffffffffffffffffffffffffffff1916101561161c5760028361161591906132b5565b92506116f4565b60f060f81b817effffffffffffffffffffffffffffffffffffffffffffffffffffffffffffff1916101561165e5760038361165791906132b5565b92506116f3565b60f8801b817effffffffffffffffffffffffffffffffffffffffffffffffffffffffffffff1916101561169f5760048361169891906132b5565b92506116f2565b60fc60f81b817effffffffffffffffffffffffffffffffffffffffffffffffffffffffffffff191610156116e1576005836116da91906132b5565b92506116f1565b6006836116ee91906132b5565b92505b5b5b5b5b50828061170190613318565b93505061156e565b829350505050919050565b60606000820361175b576040518060400160405280600181526020017f3000000000000000000000000000000000000000000000000000000000000000815250905061186f565b600082905060005b6000821461178d57808061177690613318565b915050600a82611786919061338f565b9150611763565b60008167ffffffffffffffff8111156117a9576117a86125b4565b5b6040519080825280601f01601f1916602001820160405280156117db5781602001600182028036833780820191505090505b5090505b60008514611868576001826117f49190613281565b9150600a8561180391906133c0565b603061180f91906132b5565b60f81b818381518110611825576118246132e9565b5b60200101907effffffffffffffffffffffffffffffffffffffffffffffffffffffffffffff1916908160001a905350600a85611861919061338f565b94506117df565b8093505050505b919050565b6119108484848460405160240161188e94939291906133f1565b6040516020818303038152906040527f8eafb02b000000000000000000000000000000000000000000000000000000007bffffffffffffffffffffffffffffffffffffffffffffffffffffffff19166020820180517bffffffffffffffffffffffffffffffffffffffffffffffffffffffff8381831617835250505050611e2e565b50505050565b60606000825190506000810361193e5760405180602001604052806000815250915050611aa8565b6000600360028361194f91906132b5565b611959919061338f565b6004611965919061344b565b9050600060208261197691906132b5565b67ffffffffffffffff81111561198f5761198e6125b4565b5b6040519080825280601f01601f1916602001820160405280156119c15781602001600182028036833780820191505090505b5090506000604051806060016040528060408152602001613ae5604091399050600181016020830160005b86811015611a655760038101905062ffffff818a015116603f8160121c168401518060081b905060ff603f83600c1c1686015116810190508060081b905060ff603f8360061c1686015116810190508060081b905060ff603f831686015116810190508060e01b905080845260048401935050506119ec565b506003860660018114611a7f5760028114611a8f57611a9a565b613d3d60f01b6002830352611a9a565b603d60f81b60018303525b508484525050819450505050505b919050565b611b4381604051602401611ac1919061240a565b6040516020818303038152906040527f41304fac000000000000000000000000000000000000000000000000000000007bffffffffffffffffffffffffffffffffffffffffffffffffffffffff19166020820180517bffffffffffffffffffffffffffffffffffffffffffffffffffffffff8381831617835250505050611e2e565b50565b611b60828260405180602001604052806000815250611ecd565b5050565b611b6d82611e57565b611bac576040517f08c379a0000000000000000000000000000000000000000000000000000000008152600401611ba3906134ff565b60405180910390fd5b80600660008481526020019081526020016000209081611bcc91906136b6565b505050565b6001816000016000828254019250508190555050565b8173ffffffffffffffffffffffffffffffffffffffff168373ffffffffffffffffffffffffffffffffffffffff1603611c55576040517f08c379a0000000000000000000000000000000000000000000000000000000008152600401611c4c906137d4565b60405180910390fd5b80600560008573ffffffffffffffffffffffffffffffffffffffff1673ffffffffffffffffffffffffffffffffffffffff16815260200190815260200160002060008473ffffffffffffffffffffffffffffffffffffffff1673ffffffffffffffffffffffffffffffffffffffff16815260200190815260200160002060006101000a81548160ff0219169083151502179055508173ffffffffffffffffffffffffffffffffffffffff168373ffffffffffffffffffffffffffffffffffffffff167f17307eab39ab6107e8899845ad3d59bd9653f200f220920489ca2b5937696c3183604051611d46919061235f565b60405180910390a3505050565b611d5e8484846112eb565b611d6a84848484611f28565b611da9576040517f08c379a0000000000000000000000000000000000000000000000000000000008152600401611da090613866565b60405180910390fd5b50505050565b606060405180602001604052806000815250905090565b6060611dd18261114a565b6000611ddb611daf565b90506000815111611dfb5760405180602001604052806000815250611e26565b80611e0584611714565b604051602001611e169291906130d3565b6040516020818303038152906040525b915050919050565b60008151905060006a636f6e736f6c652e6c6f679050602083016000808483855afa5050505050565b60008073ffffffffffffffffffffffffffffffffffffffff166002600084815260200190815260200160002060009054906101000a900473ffffffffffffffffffffffffffffffffffffffff1673ffffffffffffffffffffffffffffffffffffffff1614159050919050565b505050565b505050565b611ed783836120af565b611ee46000848484611f28565b611f23576040517f08c379a0000000000000000000000000000000000000000000000000000000008152600401611f1a90613866565b60405180910390fd5b505050565b6000611f498473ffffffffffffffffffffffffffffffffffffffff16612288565b156120a2578373ffffffffffffffffffffffffffffffffffffffff1663150b7a02611f72611195565b8786866040518563ffffffff1660e01b8152600401611f9494939291906138db565b6020604051808303816000875af1925050508015611fd057506040513d601f19601f82011682018060405250810190611fcd919061393c565b60015b612052573d8060008114612000576040519150601f19603f3d011682016040523d82523d6000602084013e612005565b606091505b50600081510361204a576040517f08c379a000000000000000000000000000000000000000000000000000000000815260040161204190613866565b60405180910390fd5b805181602001fd5b63150b7a0260e01b7bffffffffffffffffffffffffffffffffffffffffffffffffffffffff1916817bffffffffffffffffffffffffffffffffffffffffffffffffffffffff1916149150506120a7565b600190505b949350505050565b600073ffffffffffffffffffffffffffffffffffffffff168273ffffffffffffffffffffffffffffffffffffffff160361211e576040517f08c379a0000000000000000000000000000000000000000000000000000000008152600401612115906139b5565b60405180910390fd5b61212781611e57565b15612167576040517f08c379a000000000000000000000000000000000000000000000000000000000815260040161215e90613a21565b60405180910390fd5b61217360008383611ec3565b6001600360008473ffffffffffffffffffffffffffffffffffffffff1673ffffffffffffffffffffffffffffffffffffffff16815260200190815260200160002060008282546121c391906132b5565b92505081905550816002600083815260200190815260200160002060006101000a81548173ffffffffffffffffffffffffffffffffffffffff021916908373ffffffffffffffffffffffffffffffffffffffff160217905550808273ffffffffffffffffffffffffffffffffffffffff16600073ffffffffffffffffffffffffffffffffffffffff167fddf252ad1be2c89b69c2b068fc378daa952ba7f163c4a11628f55a4df523b3ef60405160405180910390a461228460008383611ec8565b5050565b6000808273ffffffffffffffffffffffffffffffffffffffff163b119050919050565b6000604051905090565b600080fd5b600080fd5b60007fffffffff0000000000000000000000000000000000000000000000000000000082169050919050565b6122f4816122bf565b81146122ff57600080fd5b50565b600081359050612311816122eb565b92915050565b60006020828403121561232d5761232c6122b5565b5b600061233b84828501612302565b91505092915050565b60008115159050919050565b61235981612344565b82525050565b60006020820190506123746000830184612350565b92915050565b600081519050919050565b600082825260208201905092915050565b60005b838110156123b4578082015181840152602081019050612399565b60008484015250505050565b6000601f19601f8301169050919050565b60006123dc8261237a565b6123e68185612385565b93506123f6818560208601612396565b6123ff816123c0565b840191505092915050565b6000602082019050818103600083015261242481846123d1565b905092915050565b6000819050919050565b61243f8161242c565b811461244a57600080fd5b50565b60008135905061245c81612436565b92915050565b600060208284031215612478576124776122b5565b5b60006124868482850161244d565b91505092915050565b600073ffffffffffffffffffffffffffffffffffffffff82169050919050565b60006124ba8261248f565b9050919050565b6124ca816124af565b82525050565b60006020820190506124e560008301846124c1565b92915050565b6124f4816124af565b81146124ff57600080fd5b50565b600081359050612511816124eb565b92915050565b6000806040838503121561252e5761252d6122b5565b5b600061253c85828601612502565b925050602061254d8582860161244d565b9150509250929050565b6000806000606084860312156125705761256f6122b5565b5b600061257e86828701612502565b935050602061258f86828701612502565b92505060406125a08682870161244d565b9150509250925092565b600080fd5b600080fd5b7f4e487b7100000000000000000000000000000000000000000000000000000000600052604160045260246000fd5b6125ec826123c0565b810181811067ffffffffffffffff8211171561260b5761260a6125b4565b5b80604052505050565b600061261e6122ab565b905061262a82826125e3565b919050565b600067ffffffffffffffff82111561264a576126496125b4565b5b612653826123c0565b9050602081019050919050565b82818337600083830152505050565b600061268261267d8461262f565b612614565b90508281526020810184848401111561269e5761269d6125af565b5b6126a9848285612660565b509392505050565b600082601f8301126126c6576126c56125aa565b5b81356126d684826020860161266f565b91505092915050565b6000602082840312156126f5576126f46122b5565b5b600082013567ffffffffffffffff811115612713576127126122ba565b5b61271f848285016126b1565b91505092915050565b60006020828403121561273e5761273d6122b5565b5b600061274c84828501612502565b91505092915050565b61275e8161242c565b82525050565b60006020820190506127796000830184612755565b92915050565b61278881612344565b811461279357600080fd5b50565b6000813590506127a58161277f565b92915050565b600080604083850312156127c2576127c16122b5565b5b60006127d085828601612502565b92505060206127e185828601612796565b9150509250929050565b600067ffffffffffffffff821115612806576128056125b4565b5b61280f826123c0565b9050602081019050919050565b600061282f61282a846127eb565b612614565b90508281526020810184848401111561284b5761284a6125af565b5b612856848285612660565b509392505050565b600082601f830112612873576128726125aa565b5b813561288384826020860161281c565b91505092915050565b600080600080608085870312156128a6576128a56122b5565b5b60006128b487828801612502565b94505060206128c587828801612502565b93505060406128d68782880161244d565b925050606085013567ffffffffffffffff8111156128f7576128f66122ba565b5b6129038782880161285e565b91505092959194509250565b60008060408385031215612926576129256122b5565b5b600061293485828601612502565b925050602061294585828601612502565b9150509250929050565b7f4e487b7100000000000000000000000000000000000000000000000000000000600052602260045260246000fd5b6000600282049050600182168061299657607f821691505b6020821081036129a9576129a861294f565b5b50919050565b7f4552433732313a20617070726f76616c20746f2063757272656e74206f776e6560008201527f7200000000000000000000000000000000000000000000000000000000000000602082015250565b6000612a0b602183612385565b9150612a16826129af565b604082019050919050565b60006020820190508181036000830152612a3a816129fe565b9050919050565b7f4552433732313a20617070726f76652063616c6c6572206973206e6f7420746f60008201527f6b656e206f776e6572206e6f7220617070726f76656420666f7220616c6c0000602082015250565b6000612a9d603e83612385565b9150612aa882612a41565b604082019050919050565b60006020820190508181036000830152612acc81612a90565b9050919050565b7f4552433732313a2063616c6c6572206973206e6f7420746f6b656e206f776e6560008201527f72206e6f7220617070726f766564000000000000000000000000000000000000602082015250565b6000612b2f602e83612385565b9150612b3a82612ad3565b604082019050919050565b60006020820190508181036000830152612b5e81612b22565b9050919050565b600081905092915050565b6000612b7b8261237a565b612b858185612b65565b9350612b95818560208601612396565b80840191505092915050565b6000612bad8284612b70565b915081905092915050565b7f596f7520617265206e6f7420686176696e6720656e6f756768206d6174696321600082015250565b6000612bee602083612385565b9150612bf982612bb8565b602082019050919050565b60006020820190508181036000830152612c1d81612be1565b9050919050565b7f2e00000000000000000000000000000000000000000000000000000000000000600082015250565b6000612c5a600183612b65565b9150612c6582612c24565b600182019050919050565b60008190508160005260206000209050919050565b60008154612c928161297e565b612c9c8186612b65565b94506001821660008114612cb75760018114612ccc57612cff565b60ff1983168652811515820286019350612cff565b612cd585612c70565b60005b83811015612cf757815481890152600182019150602081019050612cd8565b838801955050505b50505092915050565b6000612d148285612b70565b9150612d1f82612c4d565b9150612d2b8284612c85565b91508190509392505050565b6000612d438286612c85565b9150612d4f8285612b70565b9150612d5b8284612c85565b9150819050949350505050565b7f7b226e616d65223a202200000000000000000000000000000000000000000000600082015250565b6000612d9e600a83612b65565b9150612da982612d68565b600a82019050919050565b7f222c20226465736372697074696f6e223a20225468697320746869732071756160008201527f736172202c61206e6674206261736564206e616d652073657276696365206f6e60208201527f20706f6c79676f6e222c2022696d616765223a2022646174613a696d6167652f60408201527f7376672b786d6c3b6261736536342c0000000000000000000000000000000000606082015250565b6000612e5c606f83612b65565b9150612e6782612db4565b606f82019050919050565b7f222c226c656e677468223a220000000000000000000000000000000000000000600082015250565b6000612ea8600c83612b65565b9150612eb382612e72565b600c82019050919050565b7f227d000000000000000000000000000000000000000000000000000000000000600082015250565b6000612ef4600283612b65565b9150612eff82612ebe565b600282019050919050565b6000612f1582612d91565b9150612f218286612b70565b9150612f2c82612e4f565b9150612f388285612b70565b9150612f4382612e9b565b9150612f4f8284612b70565b9150612f5a82612ee7565b9150819050949350505050565b7f646174613a6170706c69636174696f6e2f6a736f6e3b6261736536342c000000600082015250565b6000612f9d601d83612b65565b9150612fa882612f67565b601d82019050919050565b6000612fbe82612f90565b9150612fca8284612b70565b915081905092915050565b7f4552433732313a20696e76616c696420746f6b656e2049440000000000000000600082015250565b600061300b601883612385565b915061301682612fd5565b602082019050919050565b6000602082019050818103600083015261303a81612ffe565b9050919050565b7f4552433732313a2061646472657373207a65726f206973206e6f74206120766160008201527f6c6964206f776e65720000000000000000000000000000000000000000000000602082015250565b600061309d602983612385565b91506130a882613041565b604082019050919050565b600060208201905081810360008301526130cc81613090565b9050919050565b60006130df8285612b70565b91506130eb8284612b70565b91508190509392505050565b6000604082019050818103600083015261311181856123d1565b9050818103602083015261312581846123d1565b90509392505050565b7f4552433732313a207472616e736665722066726f6d20696e636f72726563742060008201527f6f776e6572000000000000000000000000000000000000000000000000000000602082015250565b600061318a602583612385565b91506131958261312e565b604082019050919050565b600060208201905081810360008301526131b98161317d565b9050919050565b7f4552433732313a207472616e7366657220746f20746865207a65726f2061646460008201527f7265737300000000000000000000000000000000000000000000000000000000602082015250565b600061321c602483612385565b9150613227826131c0565b604082019050919050565b6000602082019050818103600083015261324b8161320f565b9050919050565b7f4e487b7100000000000000000000000000000000000000000000000000000000600052601160045260246000fd5b600061328c8261242c565b91506132978361242c565b92508282039050818111156132af576132ae613252565b5b92915050565b60006132c08261242c565b91506132cb8361242c565b92508282019050808211156132e3576132e2613252565b5b92915050565b7f4e487b7100000000000000000000000000000000000000000000000000000000600052603260045260246000fd5b60006133238261242c565b91507fffffffffffffffffffffffffffffffffffffffffffffffffffffffffffffffff820361335557613354613252565b5b600182019050919050565b7f4e487b7100000000000000000000000000000000000000000000000000000000600052601260045260246000fd5b600061339a8261242c565b91506133a58361242c565b9250826133b5576133b4613360565b5b828204905092915050565b60006133cb8261242c565b91506133d68361242c565b9250826133e6576133e5613360565b5b828206905092915050565b6000608082019050818103600083015261340b81876123d1565b9050818103602083015261341f81866123d1565b9050818103604083015261343381856123d1565b90506134426060830184612755565b95945050505050565b60006134568261242c565b91506134618361242c565b925082820261346f8161242c565b9150828204841483151761348657613485613252565b5b5092915050565b7f45524337323155524953746f726167653a2055524920736574206f66206e6f6e60008201527f6578697374656e7420746f6b656e000000000000000000000000000000000000602082015250565b60006134e9602e83612385565b91506134f48261348d565b604082019050919050565b60006020820190508181036000830152613518816134dc565b9050919050565b60006020601f8301049050919050565b600082821b905092915050565b60006008830261356c7fffffffffffffffffffffffffffffffffffffffffffffffffffffffffffffffff8261352f565b613576868361352f565b95508019841693508086168417925050509392505050565b6000819050919050565b60006135b36135ae6135a98461242c565b61358e565b61242c565b9050919050565b6000819050919050565b6135cd83613598565b6135e16135d9826135ba565b84845461353c565b825550505050565b600090565b6135f66135e9565b6136018184846135c4565b505050565b5b818110156136255761361a6000826135ee565b600181019050613607565b5050565b601f82111561366a5761363b81612c70565b6136448461351f565b81016020851015613653578190505b61366761365f8561351f565b830182613606565b50505b505050565b600082821c905092915050565b600061368d6000198460080261366f565b1980831691505092915050565b60006136a6838361367c565b9150826002028217905092915050565b6136bf8261237a565b67ffffffffffffffff8111156136d8576136d76125b4565b5b6136e2825461297e565b6136ed828285613629565b600060209050601f831160018114613720576000841561370e578287015190505b613718858261369a565b865550613780565b601f19841661372e86612c70565b60005b8281101561375657848901518255600182019150602085019450602081019050613731565b86831015613773578489015161376f601f89168261367c565b8355505b6001600288020188555050505b505050505050565b7f4552433732313a20617070726f766520746f2063616c6c657200000000000000600082015250565b60006137be601983612385565b91506137c982613788565b602082019050919050565b600060208201905081810360008301526137ed816137b1565b9050919050565b7f4552433732313a207472616e7366657220746f206e6f6e20455243373231526560008201527f63656976657220696d706c656d656e7465720000000000000000000000000000602082015250565b6000613850603283612385565b915061385b826137f4565b604082019050919050565b6000602082019050818103600083015261387f81613843565b9050919050565b600081519050919050565b600082825260208201905092915050565b60006138ad82613886565b6138b78185613891565b93506138c7818560208601612396565b6138d0816123c0565b840191505092915050565b60006080820190506138f060008301876124c1565b6138fd60208301866124c1565b61390a6040830185612755565b818103606083015261391c81846138a2565b905095945050505050565b600081519050613936816122eb565b92915050565b600060208284031215613952576139516122b5565b5b600061396084828501613927565b91505092915050565b7f4552433732313a206d696e7420746f20746865207a65726f2061646472657373600082015250565b600061399f602083612385565b91506139aa82613969565b602082019050919050565b600060208201905081810360008301526139ce81613992565b9050919050565b7f4552433732313a20746f6b656e20616c7265616479206d696e74656400000000600082015250565b6000613a0b601c83612385565b9150613a16826139d5565b602082019050919050565b60006020820190508181036000830152613a3a816139fe565b905091905056fe0a2d2d2d2d2d2d2d2d2d2d2d2d2d2d2d2d2d2d2d2d2d2d2d2d2d2d2d2d2d2d2d2d2d2d2d2d2d2d2d2d2d2d2d2d2d2d2d2d2d2d2d2d2d2d2d2d5265676973746572696e672025732e2573206f6e2074686520636f6e7472616374207769746820746f6b656e49442025642d2d2d2d2d2d2d2d2d2d2d2d2d2d2d2d2d2d2d2d2d2d2d2d2d2d2d2d2d2d2d2d2d2d2d2d2d2d2d2d2d2d2d2d2d2d2d2d2d2d2d2d2d2d2d2d0a4142434445464748494a4b4c4d4e4f505152535455565758595a6162636465666768696a6b6c6d6e6f707172737475767778797a303132333435363738392b2fa2646970667358221220c668b276ef5e0300b95e94abb3d099c2a2614e3bded574596553ac45ee4a992664736f6c634300081100333c73766720786d6c6e733d22687474703a2f2f7777772e77332e6f72672f323030302f737667222077696474683d2232373022206865696768743d22323730222066696c6c3d226e6f6e65223e3c706174682066696c6c3d2275726c282342292220643d224d302030683237307632373048307a222f3e3c646566733e3c66696c7465722069643d22412220636f6c6f722d696e746572706f6c6174696f6e2d66696c746572733d2273524742222066696c746572556e6974733d227573657253706163654f6e55736522206865696768743d22323730222077696474683d22323730223e3c666544726f70536861646f772064783d2230222064793d22312220737464446576696174696f6e3d22322220666c6f6f642d6f7061636974793d222e323235222077696474683d223230302522206865696768743d2232303025222f3e3c2f66696c7465723e3c2f646566733e3c7061746820643d224d37322e3836332034322e393439632d2e3636382d2e3338372d312e3432362d2e35392d322e3139372d2e3539732d312e3532392e3230342d322e3139372e35396c2d31302e30383120362e3033322d362e383520332e3933342d31302e30383120362e303332632d2e3636382e3338372d312e3432362e35392d322e3139372e3539732d312e3532392d2e3230342d322e3139372d2e35396c2d382e3031332d342e37323161342e353220342e35322030203020312d312e3538392d312e363136632d2e3338342d2e3636352d2e3539342d312e3431382d2e3630382d322e313837762d392e3331632d2e3031332d2e3737352e3138352d312e3533382e3537322d322e32303861342e323520342e323520302030203120312e3632352d312e3539356c372e3838342d342e3539632e3636382d2e33383720312e3432362d2e353920322e3139372d2e353973312e3532392e32303420322e3139372e35396c372e38383420342e353961342e353220342e353220302030203120312e35383920312e363136632e3338342e3636352e35393420312e3431382e36303820322e31383776362e3033326c362e38352d342e303635762d362e303332632e3031332d2e3737352d2e3138352d312e3533382d2e3537322d322e32303861342e323520342e32352030203020302d312e3632352d312e3539354c34312e3435362032342e3539632d2e3636382d2e3338372d312e3432362d2e35392d322e3139372d2e3539732d312e3532392e3230342d322e3139372e35396c2d31342e38363420382e36353561342e323520342e32352030203020302d312e36323520312e353935632d2e3338372e36372d2e35383520312e3433342d2e35373220322e3230387631372e343431632d2e3031332e3737352e31383520312e3533382e35373220322e32303861342e323520342e323520302030203020312e36323520312e3539356c31342e38363420382e363535632e3636382e33383720312e3432362e353920322e3139372e353973312e3532392d2e32303420322e3139372d2e35396c31302e3038312d352e39303120362e38352d342e3036352031302e3038312d352e393031632e3636382d2e33383720312e3432362d2e353920322e3139372d2e353973312e3532392e32303420322e3139372e35396c372e38383420342e353961342e353220342e353220302030203120312e35383920312e363136632e3338342e3636352e35393420312e3431382e36303820322e31383776392e333131632e3031332e3737352d2e31383520312e3533382d2e35373220322e32303861342e323520342e32352030203020312d312e36323520312e3539356c2d372e38383420342e373231632d2e3636382e3338372d312e3432362e35392d322e3139372e3539732d312e3532392d2e3230342d322e3139372d2e35396c2d372e3838342d342e353961342e353220342e35322030203020312d312e3538392d312e363136632d2e3338352d2e3636352d2e3539342d312e3431382d2e3630382d322e313837762d362e3033326c2d362e383520342e30363576362e303332632d2e3031332e3737352e31383520312e3533382e35373220322e32303861342e323520342e323520302030203020312e36323520312e3539356c31342e38363420382e363535632e3636382e33383720312e3432362e353920322e3139372e353973312e3532392d2e32303420322e3139372d2e35396c31342e3836342d382e363535632e3635372d2e33393420312e3230342d2e393520312e3538392d312e363136732e3539342d312e3431382e3630392d322e3138375635352e353338632e3031332d2e3737352d2e3138352d312e3533382d2e3537322d322e32303861342e323520342e32352030203020302d312e3632352d312e3539356c2d31342e3939332d382e3738367a222066696c6c3d2223666666222f3e3c646566733e3c6c696e6561724772616469656e742069643d2242222078313d2230222079313d2230222078323d22323730222079323d2232373022206772616469656e74556e6974733d227573657253706163654f6e557365223e3c73746f702073746f702d636f6c6f723d2223636235656565222f3e3c73746f70206f66667365743d2231222073746f702d636f6c6f723d2223306364376534222073746f702d6f7061636974793d222e3939222f3e3c2f6c696e6561724772616469656e743e3c2f646566733e3c7465787420783d2233322e352220793d223233312220666f6e742d73697a653d223237222066696c6c3d2223666666222066696c7465723d2275726c282341292220666f6e742d66616d696c793d22506c7573204a616b617274612053616e732c44656a6156752053616e732c4e6f746f20436f6c6f7220456d6f6a692c4170706c6520436f6c6f7220456d6f6a692c73616e732d73657269662220666f6e742d7765696768743d22626f6c64223e446f6d61696e206465706c6f796564207375636365737366756c6c7920746f20706f6c79676f6e20",
    "linkReferences": {},
    "deployedLinkReferences": {}
}